{
  "contractName": "ImmoTokenSale",
  "abi": [
    {
      "inputs": [
        {
          "internalType": "contract ImmoToken",
          "name": "_tokenContract",
          "type": "address"
        },
        {
          "internalType": "uint256",
          "name": "_tokenPrice",
          "type": "uint256"
        }
      ],
      "payable": false,
      "stateMutability": "nonpayable",
      "type": "constructor"
    },
    {
      "anonymous": false,
      "inputs": [
        {
          "indexed": false,
          "internalType": "address",
          "name": "_buyer",
          "type": "address"
        },
        {
          "indexed": false,
          "internalType": "uint256",
          "name": "_amount",
          "type": "uint256"
        }
      ],
      "name": "Sell",
      "type": "event"
    },
    {
      "anonymous": false,
      "inputs": [
        {
          "indexed": false,
          "internalType": "address",
          "name": "_seller",
          "type": "address"
        },
        {
          "indexed": false,
          "internalType": "uint256",
          "name": "_amount",
          "type": "uint256"
        },
        {
          "indexed": false,
          "internalType": "uint256",
          "name": "_price",
          "type": "uint256"
        }
      ],
      "name": "SellOffer",
      "type": "event"
    },
    {
      "constant": true,
      "inputs": [
        {
          "internalType": "address",
          "name": "",
          "type": "address"
        },
        {
          "internalType": "uint256",
          "name": "",
          "type": "uint256"
        }
      ],
      "name": "offerBooking",
      "outputs": [
        {
          "internalType": "uint256",
          "name": "amount",
          "type": "uint256"
        },
        {
          "internalType": "uint256",
          "name": "price",
          "type": "uint256"
        }
      ],
      "payable": false,
      "stateMutability": "view",
      "type": "function"
    },
    {
      "constant": true,
      "inputs": [],
      "name": "tokenContract",
      "outputs": [
        {
          "internalType": "contract ImmoToken",
          "name": "",
          "type": "address"
        }
      ],
      "payable": false,
      "stateMutability": "view",
      "type": "function"
    },
    {
      "constant": true,
      "inputs": [],
      "name": "tokenPrice",
      "outputs": [
        {
          "internalType": "uint256",
          "name": "",
          "type": "uint256"
        }
      ],
      "payable": false,
      "stateMutability": "view",
      "type": "function"
    },
    {
      "constant": true,
      "inputs": [],
      "name": "tokensSold",
      "outputs": [
        {
          "internalType": "uint256",
          "name": "",
          "type": "uint256"
        }
      ],
      "payable": false,
      "stateMutability": "view",
      "type": "function"
    },
    {
      "constant": false,
      "inputs": [
        {
          "internalType": "uint256",
          "name": "_numberOfTokens",
          "type": "uint256"
        }
      ],
      "name": "buyTokens",
      "outputs": [],
      "payable": true,
      "stateMutability": "payable",
      "type": "function"
    },
    {
      "constant": false,
      "inputs": [
        {
          "internalType": "uint256",
          "name": "_numberOfTokens",
          "type": "uint256"
        },
        {
          "internalType": "uint256",
          "name": "_price",
          "type": "uint256"
        }
      ],
      "name": "bookOffer",
      "outputs": [
        {
          "internalType": "bool",
          "name": "success",
          "type": "bool"
        }
      ],
      "payable": false,
      "stateMutability": "nonpayable",
      "type": "function"
    },
    {
      "constant": false,
      "inputs": [],
      "name": "endSale",
      "outputs": [],
      "payable": false,
      "stateMutability": "nonpayable",
      "type": "function"
    }
  ],
  "bytecode": "0x608060405234801561001057600080fd5b50604051610ab6380380610ab68339818101604052604081101561003357600080fd5b810190808051906020019092919080519060200190929190505050336000806101000a81548173ffffffffffffffffffffffffffffffffffffffff021916908373ffffffffffffffffffffffffffffffffffffffff16021790555081600160006101000a81548173ffffffffffffffffffffffffffffffffffffffff021916908373ffffffffffffffffffffffffffffffffffffffff1602179055508060028190555050506109cf806100e76000396000f3fe6080604052600436106100705760003560e01c806355a373d61161004e57806355a373d6146100e55780637ff9b5961461013c578063955bff5014610167578063bc3a4e9d146101c457610070565b80633610724e14610075578063380d831b146100a3578063518ab2a8146100ba575b600080fd5b6100a16004803603602081101561008b57600080fd5b810190808035906020019092919050505061023a565b005b3480156100af57600080fd5b506100b86104a2565b005b3480156100c657600080fd5b506100cf6106fb565b6040518082815260200191505060405180910390f35b3480156100f157600080fd5b506100fa610701565b604051808273ffffffffffffffffffffffffffffffffffffffff1673ffffffffffffffffffffffffffffffffffffffff16815260200191505060405180910390f35b34801561014857600080fd5b50610151610727565b6040518082815260200191505060405180910390f35b34801561017357600080fd5b506101aa6004803603604081101561018a57600080fd5b81019080803590602001909291908035906020019092919050505061072d565b604051808215151515815260200191505060405180910390f35b3480156101d057600080fd5b5061021d600480360360408110156101e757600080fd5b81019080803573ffffffffffffffffffffffffffffffffffffffff16906020019092919080359060200190929190505050610928565b604051808381526020018281526020019250505060405180910390f35b61024681600254610966565b341461025157600080fd5b80600160009054906101000a900473ffffffffffffffffffffffffffffffffffffffff1673ffffffffffffffffffffffffffffffffffffffff166370a08231306040518263ffffffff1660e01b8152600401808273ffffffffffffffffffffffffffffffffffffffff1673ffffffffffffffffffffffffffffffffffffffff16815260200191505060206040518083038186803b1580156102f157600080fd5b505afa158015610305573d6000803e3d6000fd5b505050506040513d602081101561031b57600080fd5b8101908080519060200190929190505050101561033757600080fd5b600160009054906101000a900473ffffffffffffffffffffffffffffffffffffffff1673ffffffffffffffffffffffffffffffffffffffff1663a9059cbb33836040518363ffffffff1660e01b8152600401808373ffffffffffffffffffffffffffffffffffffffff1673ffffffffffffffffffffffffffffffffffffffff16815260200182815260200192505050602060405180830381600087803b1580156103e057600080fd5b505af11580156103f4573d6000803e3d6000fd5b505050506040513d602081101561040a57600080fd5b810190808051906020019092919050505061042457600080fd5b806003600082825401925050819055507f5e5e995ce3133561afceaa51a9a154d5db228cd7525d34df5185582c18d3df093382604051808373ffffffffffffffffffffffffffffffffffffffff1673ffffffffffffffffffffffffffffffffffffffff1681526020018281526020019250505060405180910390a150565b6000809054906101000a900473ffffffffffffffffffffffffffffffffffffffff1673ffffffffffffffffffffffffffffffffffffffff163373ffffffffffffffffffffffffffffffffffffffff16146104fb57600080fd5b600160009054906101000a900473ffffffffffffffffffffffffffffffffffffffff1673ffffffffffffffffffffffffffffffffffffffff1663a9059cbb6000809054906101000a900473ffffffffffffffffffffffffffffffffffffffff16600160009054906101000a900473ffffffffffffffffffffffffffffffffffffffff1673ffffffffffffffffffffffffffffffffffffffff166370a08231306040518263ffffffff1660e01b8152600401808273ffffffffffffffffffffffffffffffffffffffff1673ffffffffffffffffffffffffffffffffffffffff16815260200191505060206040518083038186803b1580156105fa57600080fd5b505afa15801561060e573d6000803e3d6000fd5b505050506040513d602081101561062457600080fd5b81019080805190602001909291905050506040518363ffffffff1660e01b8152600401808373ffffffffffffffffffffffffffffffffffffffff1673ffffffffffffffffffffffffffffffffffffffff16815260200182815260200192505050602060405180830381600087803b15801561069e57600080fd5b505af11580156106b2573d6000803e3d6000fd5b505050506040513d60208110156106c857600080fd5b81019080805190602001909291905050506106e257600080fd5b3373ffffffffffffffffffffffffffffffffffffffff16ff5b60035481565b600160009054906101000a900473ffffffffffffffffffffffffffffffffffffffff1681565b60025481565b6000600160009054906101000a900473ffffffffffffffffffffffffffffffffffffffff1673ffffffffffffffffffffffffffffffffffffffff166370a08231336040518263ffffffff1660e01b8152600401808273ffffffffffffffffffffffffffffffffffffffff1673ffffffffffffffffffffffffffffffffffffffff16815260200191505060206040518083038186803b1580156107ce57600080fd5b505afa1580156107e2573d6000803e3d6000fd5b505050506040513d60208110156107f857600080fd5b810190808051906020019092919050505083111561081557600080fd5b600460003373ffffffffffffffffffffffffffffffffffffffff1673ffffffffffffffffffffffffffffffffffffffff1681526020019081526020016000206040518060400160405280858152602001848152509080600181540180825580915050906001820390600052602060002090600202016000909192909190915060008201518160000155602082015181600101555050507f5a3ef0eb7e2025b3d9e0ebf9185fb0c4f3fc3caf0f2b3ee6fe62fc4c2cbf5804338484604051808473ffffffffffffffffffffffffffffffffffffffff1673ffffffffffffffffffffffffffffffffffffffff168152602001838152602001828152602001935050505060405180910390a16001905092915050565b6004602052816000526040600020818154811061094157fe5b9060005260206000209060020201600091509150508060000154908060010154905082565b6000808314156109795760009050610994565b81830290508183828161098857fe5b041461099057fe5b8090505b9291505056fea265627a7a72315820b6315587e3c41842f81233dbdab559337a16af7cc33bfdd17d8465c70e8c514b64736f6c63430005100032",
  "source": "pragma solidity ^0.5.16;\n\nimport './ImmoToken.sol';\n\ncontract ImmoTokenSale {\n    address admin; \n    ImmoToken public tokenContract;\n    uint256 public tokenPrice;\n    uint256 public tokensSold;\n    event Sell(\n        address _buyer,\n        uint256 _amount\n    );\n    struct Offer{\n        uint256 amount;\n        uint256 price;\n    }\n    event SellOffer(\n        address _seller,\n        uint256 _amount,\n        uint256 _price\n   );\n\n    mapping(address => Offer[]) public offerBooking;\n\n    constructor(ImmoToken _tokenContract, uint256 _tokenPrice) public{\n        //assign an admin\n        admin = msg.sender;\n        //token contract\n        tokenContract = _tokenContract;\n        //token price\n        tokenPrice = _tokenPrice;\n    }\n    function mul(uint256 a, uint256 b) internal pure returns (uint256 c) {\n        if (a == 0) {\n        return 0;\n        }\n        c = a * b;\n        assert(c / a == b);\n        return c;\n    }\n    function buyTokens(uint256 _numberOfTokens) public payable{\n        //require that the value is equal to tokens \n        require(msg.value == mul(_numberOfTokens , tokenPrice));\n        //require that there are enough tokens left to sale\n        require(tokenContract.balanceOf(address(this)) >= _numberOfTokens);\n        //require transfer is successful\n        require(tokenContract.transfer(msg.sender, _numberOfTokens));\n        //keep track of tokens sold\n        tokensSold += _numberOfTokens;\n        //trigger sell event\n        emit Sell(msg.sender,_numberOfTokens);\n    }\n\n       function bookOffer(uint256 _numberOfTokens, uint256 _price) public returns (bool success) {\n        //require msg.sender has enough tokens\n        require(_numberOfTokens <= tokenContract.balanceOf(msg.sender));\n        //book the offer\n        offerBooking[msg.sender].push(Offer({amount:_numberOfTokens,price:_price}));\n        //emit the event\n        emit SellOffer(msg.sender, _numberOfTokens, _price);\n        return true;\n    }\n\n    //Ending Token Sale\n    function endSale() public {\n        //require that only an admin can do this\n        require(msg.sender == admin);\n        //transfer the amount of tokens left to the admin\n        require(tokenContract.transfer(admin, tokenContract.balanceOf(address(this))));\n        //destroy contract\n        selfdestruct(msg.sender);\n    }\n}",
  "sourcePath": "/Users/selim/Documents/8.Coding/2.Projects/1.Etherente/Real-Estate-Token-Exchange-Fullstack/contracts/ImmoTokenSale.sol",
  "compiler": {
    "name": "solc",
    "version": "0.5.16+commit.9c3226ce.Emscripten.clang"
  },
  "schemaVersion": "3.1.0",
  "updatedAt": "2021-06-09T15:29:54.023Z",
  "networkType": "ethereum",
  "devdoc": {
    "methods": {}
  },
  "userdoc": {
    "methods": {}
  }
}