{
  "contractName": "ImmoTokenSale",
  "abi": [
    {
      "inputs": [
        {
          "internalType": "contract ImmoToken",
          "name": "_tokenContract",
          "type": "address"
        },
        {
          "internalType": "uint256",
          "name": "_tokenPrice",
          "type": "uint256"
        }
      ],
      "stateMutability": "nonpayable",
      "type": "constructor"
    },
    {
      "anonymous": false,
      "inputs": [
        {
          "indexed": false,
          "internalType": "address",
          "name": "_buyer",
          "type": "address"
        },
        {
          "indexed": false,
          "internalType": "uint256",
          "name": "_amount",
          "type": "uint256"
        }
      ],
      "name": "Sell",
      "type": "event"
    },
    {
      "anonymous": false,
      "inputs": [
        {
          "indexed": false,
          "internalType": "address",
          "name": "_seller",
          "type": "address"
        },
        {
          "indexed": false,
          "internalType": "uint256",
          "name": "_amount",
          "type": "uint256"
        },
        {
          "indexed": false,
          "internalType": "uint256",
          "name": "_price",
          "type": "uint256"
        },
        {
          "indexed": false,
          "internalType": "uint256",
          "name": "_index",
          "type": "uint256"
        }
      ],
      "name": "SellOffer",
      "type": "event"
    },
    {
      "inputs": [],
      "name": "index",
      "outputs": [
        {
          "internalType": "uint256",
          "name": "",
          "type": "uint256"
        }
      ],
      "stateMutability": "view",
      "type": "function",
      "constant": true
    },
    {
      "inputs": [
        {
          "internalType": "address",
          "name": "",
          "type": "address"
        },
        {
          "internalType": "uint256",
          "name": "",
          "type": "uint256"
        }
      ],
      "name": "offerBooking",
      "outputs": [
        {
          "internalType": "uint256",
          "name": "amount",
          "type": "uint256"
        },
        {
          "internalType": "uint256",
          "name": "price",
          "type": "uint256"
        }
      ],
      "stateMutability": "view",
      "type": "function",
      "constant": true
    },
    {
      "inputs": [],
      "name": "tokenContract",
      "outputs": [
        {
          "internalType": "contract ImmoToken",
          "name": "",
          "type": "address"
        }
      ],
      "stateMutability": "view",
      "type": "function",
      "constant": true
    },
    {
      "inputs": [],
      "name": "tokenPrice",
      "outputs": [
        {
          "internalType": "uint256",
          "name": "",
          "type": "uint256"
        }
      ],
      "stateMutability": "view",
      "type": "function",
      "constant": true
    },
    {
      "inputs": [],
      "name": "tokensSold",
      "outputs": [
        {
          "internalType": "uint256",
          "name": "",
          "type": "uint256"
        }
      ],
      "stateMutability": "view",
      "type": "function",
      "constant": true
    },
    {
      "inputs": [
        {
          "internalType": "uint256",
          "name": "_numberOfTokens",
          "type": "uint256"
        }
      ],
      "name": "buyTokens",
      "outputs": [],
      "stateMutability": "payable",
      "type": "function",
      "payable": true
    },
    {
      "inputs": [
        {
          "internalType": "uint256",
          "name": "_numberOfTokens",
          "type": "uint256"
        },
        {
          "internalType": "uint256",
          "name": "_price",
          "type": "uint256"
        }
      ],
      "name": "bookOffer",
      "outputs": [
        {
          "internalType": "bool",
          "name": "",
          "type": "bool"
        }
      ],
      "stateMutability": "nonpayable",
      "type": "function"
    },
    {
      "inputs": [
        {
          "internalType": "address",
          "name": "_seller",
          "type": "address"
        },
        {
          "internalType": "uint256",
          "name": "_numberOfTokens",
          "type": "uint256"
        },
        {
          "internalType": "uint8",
          "name": "_index",
          "type": "uint8"
        }
      ],
      "name": "buyOffer",
      "outputs": [
        {
          "internalType": "bool",
          "name": "",
          "type": "bool"
        }
      ],
      "stateMutability": "payable",
      "type": "function",
      "payable": true
    },
    {
      "inputs": [],
      "name": "endSale",
      "outputs": [],
      "stateMutability": "nonpayable",
      "type": "function"
    }
  ],
  "bytecode": "0x608060405260006003553480156200001657600080fd5b50604051620012733803806200127383398181016040528101906200003c9190620000fa565b336000806101000a81548173ffffffffffffffffffffffffffffffffffffffff021916908373ffffffffffffffffffffffffffffffffffffffff16021790555081600160006101000a81548173ffffffffffffffffffffffffffffffffffffffff021916908373ffffffffffffffffffffffffffffffffffffffff160217905550806002819055505050620001cc565b600081519050620000dd8162000198565b92915050565b600081519050620000f481620001b2565b92915050565b6000806040838503121562000114576200011362000193565b5b60006200012485828601620000cc565b92505060206200013785828601620000e3565b9150509250929050565b60006200014e8262000169565b9050919050565b6000620001628262000141565b9050919050565b600073ffffffffffffffffffffffffffffffffffffffff82169050919050565b6000819050919050565b600080fd5b620001a38162000155565b8114620001af57600080fd5b50565b620001bd8162000189565b8114620001c957600080fd5b50565b61109780620001dc6000396000f3fe6080604052600436106100865760003560e01c806355a373d61161005957806355a373d6146101145780637ff9b5961461013f578063955bff501461016a578063a694ffbc146101a7578063bc3a4e9d146101d757610086565b80632986c0e51461008b5780633610724e146100b6578063380d831b146100d2578063518ab2a8146100e9575b600080fd5b34801561009757600080fd5b506100a0610215565b6040516100ad9190610d72565b60405180910390f35b6100d060048036038101906100cb9190610ba6565b61021b565b005b3480156100de57600080fd5b506100e76103f6565b005b3480156100f557600080fd5b506100fe6105e9565b60405161010b9190610d72565b60405180910390f35b34801561012057600080fd5b506101296105ef565b6040516101369190610d57565b60405180910390f35b34801561014b57600080fd5b50610154610615565b6040516101619190610d72565b60405180910390f35b34801561017657600080fd5b50610191600480360381019061018c9190610c00565b61061b565b60405161019e9190610d3c565b60405180910390f35b6101c160048036038101906101bc9190610b26565b6107ca565b6040516101ce9190610d3c565b60405180910390f35b3480156101e357600080fd5b506101fe60048036038101906101f99190610ae6565b6109f9565b60405161020c929190610d8d565b60405180910390f35b60035481565b61022781600254610a3a565b341461023257600080fd5b80600160009054906101000a900473ffffffffffffffffffffffffffffffffffffffff1673ffffffffffffffffffffffffffffffffffffffff166370a08231306040518263ffffffff1660e01b815260040161028e9190610c7c565b60206040518083038186803b1580156102a657600080fd5b505afa1580156102ba573d6000803e3d6000fd5b505050506040513d601f19601f820116820180604052508101906102de9190610bd3565b10156102e957600080fd5b600160009054906101000a900473ffffffffffffffffffffffffffffffffffffffff1673ffffffffffffffffffffffffffffffffffffffff1663a9059cbb33836040518363ffffffff1660e01b8152600401610346929190610cce565b602060405180830381600087803b15801561036057600080fd5b505af1158015610374573d6000803e3d6000fd5b505050506040513d601f19601f820116820180604052508101906103989190610b79565b6103a157600080fd5b80600460008282546103b39190610db6565b925050819055507f5e5e995ce3133561afceaa51a9a154d5db228cd7525d34df5185582c18d3df0933826040516103eb929190610cce565b60405180910390a150565b60008054906101000a900473ffffffffffffffffffffffffffffffffffffffff1673ffffffffffffffffffffffffffffffffffffffff163373ffffffffffffffffffffffffffffffffffffffff161461044e57600080fd5b600160009054906101000a900473ffffffffffffffffffffffffffffffffffffffff1673ffffffffffffffffffffffffffffffffffffffff1663a9059cbb60008054906101000a900473ffffffffffffffffffffffffffffffffffffffff16600160009054906101000a900473ffffffffffffffffffffffffffffffffffffffff1673ffffffffffffffffffffffffffffffffffffffff166370a08231306040518263ffffffff1660e01b81526004016105089190610c7c565b60206040518083038186803b15801561052057600080fd5b505afa158015610534573d6000803e3d6000fd5b505050506040513d601f19601f820116820180604052508101906105589190610bd3565b6040518363ffffffff1660e01b8152600401610575929190610cce565b602060405180830381600087803b15801561058f57600080fd5b505af11580156105a3573d6000803e3d6000fd5b505050506040513d601f19601f820116820180604052508101906105c79190610b79565b6105d057600080fd5b3373ffffffffffffffffffffffffffffffffffffffff16ff5b60045481565b600160009054906101000a900473ffffffffffffffffffffffffffffffffffffffff1681565b60025481565b6000600160009054906101000a900473ffffffffffffffffffffffffffffffffffffffff1673ffffffffffffffffffffffffffffffffffffffff166370a08231336040518263ffffffff1660e01b81526004016106789190610c7c565b60206040518083038186803b15801561069057600080fd5b505afa1580156106a4573d6000803e3d6000fd5b505050506040513d601f19601f820116820180604052508101906106c89190610bd3565b8311156106d457600080fd5b600560003373ffffffffffffffffffffffffffffffffffffffff1673ffffffffffffffffffffffffffffffffffffffff1681526020019081526020016000206040518060400160405280858152602001848152509080600181540180825580915050600190039060005260206000209060020201600090919091909150600082015181600001556020820151816001015550507f6bf9689bba45a814163ad20a7ce7134bfda7cb51b60b2b5e78638d87fe58b8ad33848460035460405161079e9493929190610cf7565b60405180910390a16001600360008282546107b99190610db6565b925050819055506001905092915050565b6000600560008573ffffffffffffffffffffffffffffffffffffffff1673ffffffffffffffffffffffffffffffffffffffff1681526020019081526020016000208260ff16815481106108205761081f610fd1565b5b90600052602060002090600202016000015483111561083e57600080fd5b6108ad83600560008773ffffffffffffffffffffffffffffffffffffffff1673ffffffffffffffffffffffffffffffffffffffff1681526020019081526020016000208460ff168154811061089657610895610fd1565b5b906000526020600020906002020160010154610a3a565b34146108b857600080fd5b600160009054906101000a900473ffffffffffffffffffffffffffffffffffffffff1673ffffffffffffffffffffffffffffffffffffffff1663f14f0c3e8533866040518463ffffffff1660e01b815260040161091793929190610c97565b602060405180830381600087803b15801561093157600080fd5b505af1158015610945573d6000803e3d6000fd5b505050506040513d601f19601f820116820180604052508101906109699190610b79565b61097257600080fd5b82600560008673ffffffffffffffffffffffffffffffffffffffff1673ffffffffffffffffffffffffffffffffffffffff1681526020019081526020016000208360ff16815481106109c7576109c6610fd1565b5b906000526020600020906002020160000160008282546109e79190610e97565b92505081905550600190509392505050565b60056020528160005260406000208181548110610a1557600080fd5b9060005260206000209060020201600091509150508060000154908060010154905082565b600080831415610a4d5760009050610a77565b8183610a599190610e3d565b9050818382610a689190610e0c565b14610a7657610a75610f44565b5b5b92915050565b600081359050610a8c81611005565b92915050565b600081519050610aa18161101c565b92915050565b600081359050610ab681611033565b92915050565b600081519050610acb81611033565b92915050565b600081359050610ae08161104a565b92915050565b60008060408385031215610afd57610afc611000565b5b6000610b0b85828601610a7d565b9250506020610b1c85828601610aa7565b9150509250929050565b600080600060608486031215610b3f57610b3e611000565b5b6000610b4d86828701610a7d565b9350506020610b5e86828701610aa7565b9250506040610b6f86828701610ad1565b9150509250925092565b600060208284031215610b8f57610b8e611000565b5b6000610b9d84828501610a92565b91505092915050565b600060208284031215610bbc57610bbb611000565b5b6000610bca84828501610aa7565b91505092915050565b600060208284031215610be957610be8611000565b5b6000610bf784828501610abc565b91505092915050565b60008060408385031215610c1757610c16611000565b5b6000610c2585828601610aa7565b9250506020610c3685828601610aa7565b9150509250929050565b610c4981610ecb565b82525050565b610c5881610edd565b82525050565b610c6781610f20565b82525050565b610c7681610f09565b82525050565b6000602082019050610c916000830184610c40565b92915050565b6000606082019050610cac6000830186610c40565b610cb96020830185610c40565b610cc66040830184610c6d565b949350505050565b6000604082019050610ce36000830185610c40565b610cf06020830184610c6d565b9392505050565b6000608082019050610d0c6000830187610c40565b610d196020830186610c6d565b610d266040830185610c6d565b610d336060830184610c6d565b95945050505050565b6000602082019050610d516000830184610c4f565b92915050565b6000602082019050610d6c6000830184610c5e565b92915050565b6000602082019050610d876000830184610c6d565b92915050565b6000604082019050610da26000830185610c6d565b610daf6020830184610c6d565b9392505050565b6000610dc182610f09565b9150610dcc83610f09565b9250827fffffffffffffffffffffffffffffffffffffffffffffffffffffffffffffffff03821115610e0157610e00610f73565b5b828201905092915050565b6000610e1782610f09565b9150610e2283610f09565b925082610e3257610e31610fa2565b5b828204905092915050565b6000610e4882610f09565b9150610e5383610f09565b9250817fffffffffffffffffffffffffffffffffffffffffffffffffffffffffffffffff0483118215151615610e8c57610e8b610f73565b5b828202905092915050565b6000610ea282610f09565b9150610ead83610f09565b925082821015610ec057610ebf610f73565b5b828203905092915050565b6000610ed682610ee9565b9050919050565b60008115159050919050565b600073ffffffffffffffffffffffffffffffffffffffff82169050919050565b6000819050919050565b600060ff82169050919050565b6000610f2b82610f32565b9050919050565b6000610f3d82610ee9565b9050919050565b7f4e487b7100000000000000000000000000000000000000000000000000000000600052600160045260246000fd5b7f4e487b7100000000000000000000000000000000000000000000000000000000600052601160045260246000fd5b7f4e487b7100000000000000000000000000000000000000000000000000000000600052601260045260246000fd5b7f4e487b7100000000000000000000000000000000000000000000000000000000600052603260045260246000fd5b600080fd5b61100e81610ecb565b811461101957600080fd5b50565b61102581610edd565b811461103057600080fd5b50565b61103c81610f09565b811461104757600080fd5b50565b61105381610f13565b811461105e57600080fd5b5056fea2646970667358221220d309e020236f9896fc5a29f10ead74e60e0ef15c58d99745916d06e35cb37fce64736f6c63430008060033",
  "immutableReferences": {},
  "source": "// SPDX-License-Identifier: UNLICENSED\npragma solidity ^0.8.6;\n\nimport './ImmoToken.sol';\n/// @title A plateform that handles Real Estate token exchange \n/// @author Selim Sahnoun\n/// @notice A plateform that handles Real Estate token exchange. You can use this contract for only the most basic simulation\n/// @dev This is an experimental contract, no real estate goods are linked to it\ncontract ImmoTokenSale {\n    address admin; \n    ImmoToken public tokenContract;\n    uint256 public tokenPrice;\n    uint256 public index = 0;\n    uint256 public tokensSold;\n    event Sell(\n        address _buyer,\n        uint256 _amount\n    );\n    struct Offer{\n        uint256 amount;\n        uint256 price;\n    }\n    event SellOffer(\n        address _seller,\n        uint256 _amount,\n        uint256 _price,\n        uint256 _index\n   );\n\n    mapping(address => Offer[]) public offerBooking;\n    /// @notice assign an admin, connect to the ImmoToken contract and a price for a single token\n    /// @dev The Admin will never change\n    /// @param _tokenContract ImmoToken contract ERC 20 inspired token\n    /// @param _tokenPrice Price of a single token\n\n    constructor(ImmoToken _tokenContract, uint256 _tokenPrice) {\n        //assign an admin\n        admin = msg.sender;\n        //token contract\n        tokenContract = _tokenContract;\n        //token price\n        tokenPrice = _tokenPrice;\n    }\n      /** @notice Simple Multiply function \n      */\n    function mul(uint256 a, uint256 b) internal pure returns (uint256 c) {\n        if (a == 0) {\n        return 0;\n        }\n        c = a * b;\n        assert(c / a == b);\n        return c;\n    }\n    /** @notice Allow user to buy ERC20 tokens.\n      * @dev check the Ether value is equal to price of tokens, there is enough tokens remaining, then run the transfer.\n      * @param _numberOfTokens Number of Tokens the user decided to buy.\n      */\n    function buyTokens(uint256 _numberOfTokens) public payable{\n        //require that the value is equal to tokens \n        require(msg.value == mul(_numberOfTokens , tokenPrice));\n        //require that there are enough tokens left to sale\n        require(tokenContract.balanceOf(address(this)) >= _numberOfTokens);\n        //require transfer is successful\n        require(tokenContract.transfer(msg.sender, _numberOfTokens));\n        //keep track of tokens sold\n        tokensSold += _numberOfTokens;\n        //trigger sell event\n        emit Sell(msg.sender,_numberOfTokens);\n    }\n/** @notice Allow user to put tokens for sale, it is booked as an offer {amount: number of tokens to sell, price: price per token}.\n      * @dev check that the seller has enough tokens to sell, then push the offer in an array of bookings then emit the corresponding event.\n      * @param _numberOfTokens number of tokens to sell.\n      * @param _price price per token.\n      * @return boolean indicating the success of the booking.\n      */\n    function bookOffer(uint256 _numberOfTokens, uint256 _price) public returns (bool) {\n        //require msg.sender has enough tokens\n        require(_numberOfTokens <= tokenContract.balanceOf(msg.sender));\n        //book the offer\n        offerBooking[msg.sender].push(Offer({amount:_numberOfTokens,price:_price}));\n        //emit the event\n        emit SellOffer(msg.sender, _numberOfTokens, _price, index);\n        //increment the index\n        index +=1;\n        return true;\n    }\n/** @notice Allow user to buy the tokens that are for sale\n      * @dev check there are enough tokens left for sale in the offer, he sends the correct ether value, then run the transfer\n      * @param _seller address of the seller.\n      * @param _numberOfTokens number of tokens the buyer wants to buy.\n      * @param _index index of the offer in the offerBooking array.\n      * @return boolean indicating the success of the transaction.\n      */\n    function buyOffer(address _seller, uint256 _numberOfTokens, uint8 _index) public payable returns (bool){\n        //require that there are enough tokens left to sale \n        require(_numberOfTokens <= offerBooking[_seller][_index].amount);\n        //require that the value is equal to tokens \n        require(msg.value == mul(_numberOfTokens , offerBooking[_seller][_index].price));\n        // transfer to the buyer from the seller\n        require(tokenContract.offerTransfer(_seller, msg.sender, _numberOfTokens));\n        offerBooking[_seller][_index].amount-= _numberOfTokens;\n        return true;\n    }\n/** @notice Allow admin to end sale\n      * @dev checks the sender is admin and trnasfer the remaining tokens to the admin then selfdestruct\n      */\n    function endSale() public {\n        //require that only an admin can do this\n        require(msg.sender == admin);\n        //transfer the amount of tokens left to the admin\n        require(tokenContract.transfer(admin, tokenContract.balanceOf(address(this))));\n        //destroy contract\n        selfdestruct(payable(msg.sender));    \n    }\n}",
  "sourcePath": "/Users/selim/Documents/8.Coding/2.Projects/1.Etherente/Real-Estate-Token-Exchange-Fullstack/contracts/ImmoTokenSale.sol",
  "compiler": {
    "name": "solc",
    "version": "0.8.6+commit.11564f7e.Emscripten.clang"
  },
  "schemaVersion": "3.1.0",
  "updatedAt": "2021-08-09T13:25:39.715Z",
  "networkType": "ethereum",
  "devdoc": {
    "author": "Selim Sahnoun",
    "details": "This is an experimental contract, no real estate goods are linked to it",
    "kind": "dev",
    "methods": {
      "bookOffer(uint256,uint256)": {
        "details": "check that the seller has enough tokens to sell, then push the offer in an array of bookings then emit the corresponding event.",
        "params": {
          "_numberOfTokens": "number of tokens to sell.",
          "_price": "price per token."
        },
        "returns": {
          "_0": "boolean indicating the success of the booking."
        }
      },
      "buyOffer(address,uint256,uint8)": {
        "details": "check there are enough tokens left for sale in the offer, he sends the correct ether value, then run the transfer",
        "params": {
          "_index": "index of the offer in the offerBooking array.",
          "_numberOfTokens": "number of tokens the buyer wants to buy.",
          "_seller": "address of the seller."
        },
        "returns": {
          "_0": "boolean indicating the success of the transaction."
        }
      },
      "buyTokens(uint256)": {
        "details": "check the Ether value is equal to price of tokens, there is enough tokens remaining, then run the transfer.",
        "params": {
          "_numberOfTokens": "Number of Tokens the user decided to buy."
        }
      },
      "constructor": {
        "details": "The Admin will never change",
        "params": {
          "_tokenContract": "ImmoToken contract ERC 20 inspired token",
          "_tokenPrice": "Price of a single token"
        }
      },
      "endSale()": {
        "details": "checks the sender is admin and trnasfer the remaining tokens to the admin then selfdestruct"
      }
    },
    "title": "A plateform that handles Real Estate token exchange ",
    "version": 1
  },
  "userdoc": {
    "kind": "user",
    "methods": {
      "bookOffer(uint256,uint256)": {
        "notice": "Allow user to put tokens for sale, it is booked as an offer {amount: number of tokens to sell, price: price per token}."
      },
      "buyOffer(address,uint256,uint8)": {
        "notice": "Allow user to buy the tokens that are for sale"
      },
      "buyTokens(uint256)": {
        "notice": "Allow user to buy ERC20 tokens."
      },
      "constructor": {
        "notice": "assign an admin, connect to the ImmoToken contract and a price for a single token"
      },
      "endSale()": {
        "notice": "Allow admin to end sale"
      }
    },
    "notice": "A plateform that handles Real Estate token exchange. You can use this contract for only the most basic simulation",
    "version": 1
  }
}