{
  "contractName": "ImmoTokenSale",
  "abi": [
    {
      "inputs": [
        {
          "internalType": "contract ImmoToken",
          "name": "_tokenContract",
          "type": "address"
        },
        {
          "internalType": "uint256",
          "name": "_tokenPrice",
          "type": "uint256"
        }
      ],
      "payable": false,
      "stateMutability": "nonpayable",
      "type": "constructor"
    },
    {
      "anonymous": false,
      "inputs": [
        {
          "indexed": false,
          "internalType": "address",
          "name": "_buyer",
          "type": "address"
        },
        {
          "indexed": false,
          "internalType": "uint256",
          "name": "_amount",
          "type": "uint256"
        }
      ],
      "name": "Sell",
      "type": "event"
    },
    {
      "anonymous": false,
      "inputs": [
        {
          "indexed": false,
          "internalType": "address",
          "name": "_seller",
          "type": "address"
        },
        {
          "indexed": false,
          "internalType": "uint256",
          "name": "_amount",
          "type": "uint256"
        },
        {
          "indexed": false,
          "internalType": "uint256",
          "name": "_price",
          "type": "uint256"
        }
      ],
      "name": "SellOffer",
      "type": "event"
    },
    {
      "constant": true,
      "inputs": [
        {
          "internalType": "address",
          "name": "",
          "type": "address"
        },
        {
          "internalType": "uint256",
          "name": "",
          "type": "uint256"
        }
      ],
      "name": "offerBooking",
      "outputs": [
        {
          "internalType": "uint256",
          "name": "amount",
          "type": "uint256"
        },
        {
          "internalType": "uint256",
          "name": "price",
          "type": "uint256"
        }
      ],
      "payable": false,
      "stateMutability": "view",
      "type": "function"
    },
    {
      "constant": true,
      "inputs": [],
      "name": "tokenContract",
      "outputs": [
        {
          "internalType": "contract ImmoToken",
          "name": "",
          "type": "address"
        }
      ],
      "payable": false,
      "stateMutability": "view",
      "type": "function"
    },
    {
      "constant": true,
      "inputs": [],
      "name": "tokenPrice",
      "outputs": [
        {
          "internalType": "uint256",
          "name": "",
          "type": "uint256"
        }
      ],
      "payable": false,
      "stateMutability": "view",
      "type": "function"
    },
    {
      "constant": true,
      "inputs": [],
      "name": "tokensSold",
      "outputs": [
        {
          "internalType": "uint256",
          "name": "",
          "type": "uint256"
        }
      ],
      "payable": false,
      "stateMutability": "view",
      "type": "function"
    },
    {
      "constant": false,
      "inputs": [
        {
          "internalType": "uint256",
          "name": "_numberOfTokens",
          "type": "uint256"
        }
      ],
      "name": "buyTokens",
      "outputs": [],
      "payable": true,
      "stateMutability": "payable",
      "type": "function"
    },
    {
      "constant": false,
      "inputs": [
        {
          "internalType": "uint256",
          "name": "_numberOfTokens",
          "type": "uint256"
        },
        {
          "internalType": "uint256",
          "name": "_price",
          "type": "uint256"
        }
      ],
      "name": "bookOffer",
      "outputs": [
        {
          "internalType": "bool",
          "name": "success",
          "type": "bool"
        }
      ],
      "payable": false,
      "stateMutability": "nonpayable",
      "type": "function"
    },
    {
      "constant": false,
      "inputs": [
        {
          "internalType": "address",
          "name": "_seller",
          "type": "address"
        },
        {
          "internalType": "uint256",
          "name": "_numberOfTokens",
          "type": "uint256"
        },
        {
          "internalType": "uint8",
          "name": "_index",
          "type": "uint8"
        }
      ],
      "name": "buyOffer",
      "outputs": [
        {
          "internalType": "bool",
          "name": "success",
          "type": "bool"
        }
      ],
      "payable": true,
      "stateMutability": "payable",
      "type": "function"
    },
    {
      "constant": false,
      "inputs": [],
      "name": "endSale",
      "outputs": [],
      "payable": false,
      "stateMutability": "nonpayable",
      "type": "function"
    }
  ],
  "bytecode": "0x608060405234801561001057600080fd5b50604051610dac380380610dac8339818101604052604081101561003357600080fd5b810190808051906020019092919080519060200190929190505050336000806101000a81548173ffffffffffffffffffffffffffffffffffffffff021916908373ffffffffffffffffffffffffffffffffffffffff16021790555081600160006101000a81548173ffffffffffffffffffffffffffffffffffffffff021916908373ffffffffffffffffffffffffffffffffffffffff160217905550806002819055505050610cc5806100e76000396000f3fe60806040526004361061007b5760003560e01c80637ff9b5961161004e5780637ff9b59614610147578063955bff5014610172578063a694ffbc146101cf578063bc3a4e9d146102425761007b565b80633610724e14610080578063380d831b146100ae578063518ab2a8146100c557806355a373d6146100f0575b600080fd5b6100ac6004803603602081101561009657600080fd5b81019080803590602001909291905050506102b8565b005b3480156100ba57600080fd5b506100c3610520565b005b3480156100d157600080fd5b506100da610779565b6040518082815260200191505060405180910390f35b3480156100fc57600080fd5b5061010561077f565b604051808273ffffffffffffffffffffffffffffffffffffffff1673ffffffffffffffffffffffffffffffffffffffff16815260200191505060405180910390f35b34801561015357600080fd5b5061015c6107a5565b6040518082815260200191505060405180910390f35b34801561017e57600080fd5b506101b56004803603604081101561019557600080fd5b8101908080359060200190929190803590602001909291905050506107ab565b604051808215151515815260200191505060405180910390f35b610228600480360360608110156101e557600080fd5b81019080803573ffffffffffffffffffffffffffffffffffffffff16906020019092919080359060200190929190803560ff1690602001909291905050506109a6565b604051808215151515815260200191505060405180910390f35b34801561024e57600080fd5b5061029b6004803603604081101561026557600080fd5b81019080803573ffffffffffffffffffffffffffffffffffffffff16906020019092919080359060200190929190505050610c1e565b604051808381526020018281526020019250505060405180910390f35b6102c481600254610c5c565b34146102cf57600080fd5b80600160009054906101000a900473ffffffffffffffffffffffffffffffffffffffff1673ffffffffffffffffffffffffffffffffffffffff166370a08231306040518263ffffffff1660e01b8152600401808273ffffffffffffffffffffffffffffffffffffffff1673ffffffffffffffffffffffffffffffffffffffff16815260200191505060206040518083038186803b15801561036f57600080fd5b505afa158015610383573d6000803e3d6000fd5b505050506040513d602081101561039957600080fd5b810190808051906020019092919050505010156103b557600080fd5b600160009054906101000a900473ffffffffffffffffffffffffffffffffffffffff1673ffffffffffffffffffffffffffffffffffffffff1663a9059cbb33836040518363ffffffff1660e01b8152600401808373ffffffffffffffffffffffffffffffffffffffff1673ffffffffffffffffffffffffffffffffffffffff16815260200182815260200192505050602060405180830381600087803b15801561045e57600080fd5b505af1158015610472573d6000803e3d6000fd5b505050506040513d602081101561048857600080fd5b81019080805190602001909291905050506104a257600080fd5b806003600082825401925050819055507f5e5e995ce3133561afceaa51a9a154d5db228cd7525d34df5185582c18d3df093382604051808373ffffffffffffffffffffffffffffffffffffffff1673ffffffffffffffffffffffffffffffffffffffff1681526020018281526020019250505060405180910390a150565b6000809054906101000a900473ffffffffffffffffffffffffffffffffffffffff1673ffffffffffffffffffffffffffffffffffffffff163373ffffffffffffffffffffffffffffffffffffffff161461057957600080fd5b600160009054906101000a900473ffffffffffffffffffffffffffffffffffffffff1673ffffffffffffffffffffffffffffffffffffffff1663a9059cbb6000809054906101000a900473ffffffffffffffffffffffffffffffffffffffff16600160009054906101000a900473ffffffffffffffffffffffffffffffffffffffff1673ffffffffffffffffffffffffffffffffffffffff166370a08231306040518263ffffffff1660e01b8152600401808273ffffffffffffffffffffffffffffffffffffffff1673ffffffffffffffffffffffffffffffffffffffff16815260200191505060206040518083038186803b15801561067857600080fd5b505afa15801561068c573d6000803e3d6000fd5b505050506040513d60208110156106a257600080fd5b81019080805190602001909291905050506040518363ffffffff1660e01b8152600401808373ffffffffffffffffffffffffffffffffffffffff1673ffffffffffffffffffffffffffffffffffffffff16815260200182815260200192505050602060405180830381600087803b15801561071c57600080fd5b505af1158015610730573d6000803e3d6000fd5b505050506040513d602081101561074657600080fd5b810190808051906020019092919050505061076057600080fd5b3373ffffffffffffffffffffffffffffffffffffffff16ff5b60035481565b600160009054906101000a900473ffffffffffffffffffffffffffffffffffffffff1681565b60025481565b6000600160009054906101000a900473ffffffffffffffffffffffffffffffffffffffff1673ffffffffffffffffffffffffffffffffffffffff166370a08231336040518263ffffffff1660e01b8152600401808273ffffffffffffffffffffffffffffffffffffffff1673ffffffffffffffffffffffffffffffffffffffff16815260200191505060206040518083038186803b15801561084c57600080fd5b505afa158015610860573d6000803e3d6000fd5b505050506040513d602081101561087657600080fd5b810190808051906020019092919050505083111561089357600080fd5b600460003373ffffffffffffffffffffffffffffffffffffffff1673ffffffffffffffffffffffffffffffffffffffff1681526020019081526020016000206040518060400160405280858152602001848152509080600181540180825580915050906001820390600052602060002090600202016000909192909190915060008201518160000155602082015181600101555050507f5a3ef0eb7e2025b3d9e0ebf9185fb0c4f3fc3caf0f2b3ee6fe62fc4c2cbf5804338484604051808473ffffffffffffffffffffffffffffffffffffffff1673ffffffffffffffffffffffffffffffffffffffff168152602001838152602001828152602001935050505060405180910390a16001905092915050565b6000600460008573ffffffffffffffffffffffffffffffffffffffff1673ffffffffffffffffffffffffffffffffffffffff1681526020019081526020016000208260ff16815481106109f557fe5b906000526020600020906002020160000154831115610a1357600080fd5b610a7b83600460008773ffffffffffffffffffffffffffffffffffffffff1673ffffffffffffffffffffffffffffffffffffffff1681526020019081526020016000208460ff1681548110610a6457fe5b906000526020600020906002020160010154610c5c565b3414610a8657600080fd5b600160009054906101000a900473ffffffffffffffffffffffffffffffffffffffff1673ffffffffffffffffffffffffffffffffffffffff1663f14f0c3e8533866040518463ffffffff1660e01b8152600401808473ffffffffffffffffffffffffffffffffffffffff1673ffffffffffffffffffffffffffffffffffffffff1681526020018373ffffffffffffffffffffffffffffffffffffffff1673ffffffffffffffffffffffffffffffffffffffff1681526020018281526020019350505050602060405180830381600087803b158015610b6357600080fd5b505af1158015610b77573d6000803e3d6000fd5b505050506040513d6020811015610b8d57600080fd5b8101908080519060200190929190505050610ba757600080fd5b82600460008673ffffffffffffffffffffffffffffffffffffffff1673ffffffffffffffffffffffffffffffffffffffff1681526020019081526020016000208360ff1681548110610bf557fe5b906000526020600020906002020160000160008282540392505081905550600190509392505050565b60046020528160005260406000208181548110610c3757fe5b9060005260206000209060020201600091509150508060000154908060010154905082565b600080831415610c6f5760009050610c8a565b818302905081838281610c7e57fe5b0414610c8657fe5b8090505b9291505056fea265627a7a72315820ba49cd765e2a88c99cc373bcdf618912fc89896b2ca38599ba3e3c29cf097d6164736f6c63430005100032",
  "source": "pragma solidity ^0.5.16;\n\nimport './ImmoToken.sol';\n\ncontract ImmoTokenSale {\n    address admin; \n    ImmoToken public tokenContract;\n    uint256 public tokenPrice;\n    uint256 public tokensSold;\n    event Sell(\n        address _buyer,\n        uint256 _amount\n    );\n    struct Offer{\n        uint256 amount;\n        uint256 price;\n    }\n    event SellOffer(\n        address _seller,\n        uint256 _amount,\n        uint256 _price\n   );\n    // event Transfer(\n    //     address _from, \n    //     address _to, \n    //     uint256 _numberOfTokens\n    // );\n    mapping(address => Offer[]) public offerBooking;\n\n    constructor(ImmoToken _tokenContract, uint256 _tokenPrice) public{\n        //assign an admin\n        admin = msg.sender;\n        //token contract\n        tokenContract = _tokenContract;\n        //token price\n        tokenPrice = _tokenPrice;\n    }\n    function mul(uint256 a, uint256 b) internal pure returns (uint256 c) {\n        if (a == 0) {\n        return 0;\n        }\n        c = a * b;\n        assert(c / a == b);\n        return c;\n    }\n    function buyTokens(uint256 _numberOfTokens) public payable{\n        //require that the value is equal to tokens \n        require(msg.value == mul(_numberOfTokens , tokenPrice));\n        //require that there are enough tokens left to sale\n        require(tokenContract.balanceOf(address(this)) >= _numberOfTokens);\n        //require transfer is successful\n        require(tokenContract.transfer(msg.sender, _numberOfTokens));\n        //keep track of tokens sold\n        tokensSold += _numberOfTokens;\n        //trigger sell event\n        emit Sell(msg.sender,_numberOfTokens);\n    }\n\n    function bookOffer(uint256 _numberOfTokens, uint256 _price) public returns (bool success) {\n        //require msg.sender has enough tokens\n        require(_numberOfTokens <= tokenContract.balanceOf(msg.sender));\n        //book the offer\n        offerBooking[msg.sender].push(Offer({amount:_numberOfTokens,price:_price}));\n        //emit the event\n        emit SellOffer(msg.sender, _numberOfTokens, _price);\n        return true;\n    }\n    function buyOffer(address _seller, uint256 _numberOfTokens, uint8 _index) public payable returns (bool success){\n        //require that there are enough tokens left to sale \n        require(_numberOfTokens <= offerBooking[_seller][_index].amount);\n        //require that the value is equal to tokens \n        require(msg.value == mul(_numberOfTokens , offerBooking[_seller][_index].price));\n        // transfer to the buyer from the seller\n        require(tokenContract.offerTransfer(_seller, msg.sender, _numberOfTokens));\n        offerBooking[_seller][_index].amount-= _numberOfTokens;\n        //transfer event\n        //emit Transfer(_seller, msg.sender, _numberOfTokens);\n        return true;\n    }\n    //Ending Token Sale\n    function endSale() public {\n        //require that only an admin can do this\n        require(msg.sender == admin);\n        //transfer the amount of tokens left to the admin\n        require(tokenContract.transfer(admin, tokenContract.balanceOf(address(this))));\n        //destroy contract\n        selfdestruct(msg.sender);\n    }\n}",
  "sourcePath": "/Users/selim/Documents/8.Coding/2.Projects/1.Etherente/Real-Estate-Token-Exchange-Fullstack/contracts/ImmoTokenSale.sol",
  "compiler": {
    "name": "solc",
    "version": "0.5.16+commit.9c3226ce.Emscripten.clang"
  },
  "schemaVersion": "3.1.0",
  "updatedAt": "2021-06-14T16:26:30.995Z",
  "networkType": "ethereum",
  "devdoc": {
    "methods": {}
  },
  "userdoc": {
    "methods": {}
  }
}