{
  "contractName": "ImmoTokenSale",
  "abi": [
    {
      "inputs": [
        {
          "internalType": "contract ImmoToken",
          "name": "_tokenContract",
          "type": "address"
        },
        {
          "internalType": "uint256",
          "name": "_tokenPrice",
          "type": "uint256"
        }
      ],
      "stateMutability": "nonpayable",
      "type": "constructor"
    },
    {
      "anonymous": false,
      "inputs": [
        {
          "indexed": false,
          "internalType": "address",
          "name": "_buyer",
          "type": "address"
        },
        {
          "indexed": false,
          "internalType": "uint256",
          "name": "_amount",
          "type": "uint256"
        }
      ],
      "name": "Sell",
      "type": "event"
    },
    {
      "anonymous": false,
      "inputs": [
        {
          "indexed": false,
          "internalType": "address",
          "name": "_seller",
          "type": "address"
        },
        {
          "indexed": false,
          "internalType": "uint256",
          "name": "_amount",
          "type": "uint256"
        },
        {
          "indexed": false,
          "internalType": "uint256",
          "name": "_price",
          "type": "uint256"
        }
      ],
      "name": "SellOffer",
      "type": "event"
    },
    {
      "inputs": [
        {
          "internalType": "address",
          "name": "",
          "type": "address"
        },
        {
          "internalType": "uint256",
          "name": "",
          "type": "uint256"
        }
      ],
      "name": "offerBooking",
      "outputs": [
        {
          "internalType": "uint256",
          "name": "amount",
          "type": "uint256"
        },
        {
          "internalType": "uint256",
          "name": "price",
          "type": "uint256"
        }
      ],
      "stateMutability": "view",
      "type": "function",
      "constant": true
    },
    {
      "inputs": [],
      "name": "tokenContract",
      "outputs": [
        {
          "internalType": "contract ImmoToken",
          "name": "",
          "type": "address"
        }
      ],
      "stateMutability": "view",
      "type": "function",
      "constant": true
    },
    {
      "inputs": [],
      "name": "tokenPrice",
      "outputs": [
        {
          "internalType": "uint256",
          "name": "",
          "type": "uint256"
        }
      ],
      "stateMutability": "view",
      "type": "function",
      "constant": true
    },
    {
      "inputs": [],
      "name": "tokensSold",
      "outputs": [
        {
          "internalType": "uint256",
          "name": "",
          "type": "uint256"
        }
      ],
      "stateMutability": "view",
      "type": "function",
      "constant": true
    },
    {
      "inputs": [
        {
          "internalType": "uint256",
          "name": "_numberOfTokens",
          "type": "uint256"
        }
      ],
      "name": "buyTokens",
      "outputs": [],
      "stateMutability": "payable",
      "type": "function",
      "payable": true
    },
    {
      "inputs": [
        {
          "internalType": "uint256",
          "name": "_numberOfTokens",
          "type": "uint256"
        },
        {
          "internalType": "uint256",
          "name": "_price",
          "type": "uint256"
        }
      ],
      "name": "bookOffer",
      "outputs": [
        {
          "internalType": "bool",
          "name": "success",
          "type": "bool"
        }
      ],
      "stateMutability": "nonpayable",
      "type": "function"
    },
    {
      "inputs": [
        {
          "internalType": "address",
          "name": "_seller",
          "type": "address"
        },
        {
          "internalType": "uint256",
          "name": "_numberOfTokens",
          "type": "uint256"
        },
        {
          "internalType": "uint8",
          "name": "_index",
          "type": "uint8"
        }
      ],
      "name": "buyOffer",
      "outputs": [
        {
          "internalType": "bool",
          "name": "success",
          "type": "bool"
        }
      ],
      "stateMutability": "payable",
      "type": "function",
      "payable": true
    },
    {
      "inputs": [],
      "name": "endSale",
      "outputs": [],
      "stateMutability": "nonpayable",
      "type": "function"
    }
  ],
  "bytecode": "0x60806040523480156200001157600080fd5b5060405162001206380380620012068339818101604052810190620000379190620000f5565b336000806101000a81548173ffffffffffffffffffffffffffffffffffffffff021916908373ffffffffffffffffffffffffffffffffffffffff16021790555081600160006101000a81548173ffffffffffffffffffffffffffffffffffffffff021916908373ffffffffffffffffffffffffffffffffffffffff160217905550806002819055505050620001c7565b600081519050620000d88162000193565b92915050565b600081519050620000ef81620001ad565b92915050565b600080604083850312156200010f576200010e6200018e565b5b60006200011f85828601620000c7565b92505060206200013285828601620000de565b9150509250929050565b6000620001498262000164565b9050919050565b60006200015d826200013c565b9050919050565b600073ffffffffffffffffffffffffffffffffffffffff82169050919050565b6000819050919050565b600080fd5b6200019e8162000150565b8114620001aa57600080fd5b50565b620001b88162000184565b8114620001c457600080fd5b50565b61102f80620001d76000396000f3fe60806040526004361061007b5760003560e01c80637ff9b5961161004e5780637ff9b59614610109578063955bff5014610134578063a694ffbc14610171578063bc3a4e9d146101a15761007b565b80633610724e14610080578063380d831b1461009c578063518ab2a8146100b357806355a373d6146100de575b600080fd5b61009a60048036038101906100959190610b4c565b6101df565b005b3480156100a857600080fd5b506100b16103ba565b005b3480156100bf57600080fd5b506100c86105ad565b6040516100d59190610d0a565b60405180910390f35b3480156100ea57600080fd5b506100f36105b3565b6040516101009190610cef565b60405180910390f35b34801561011557600080fd5b5061011e6105d9565b60405161012b9190610d0a565b60405180910390f35b34801561014057600080fd5b5061015b60048036038101906101569190610ba6565b6105df565b6040516101689190610cd4565b60405180910390f35b61018b60048036038101906101869190610acc565b610770565b6040516101989190610cd4565b60405180910390f35b3480156101ad57600080fd5b506101c860048036038101906101c39190610a8c565b61099f565b6040516101d6929190610d25565b60405180910390f35b6101eb816002546109e0565b34146101f657600080fd5b80600160009054906101000a900473ffffffffffffffffffffffffffffffffffffffff1673ffffffffffffffffffffffffffffffffffffffff166370a08231306040518263ffffffff1660e01b81526004016102529190610c22565b60206040518083038186803b15801561026a57600080fd5b505afa15801561027e573d6000803e3d6000fd5b505050506040513d601f19601f820116820180604052508101906102a29190610b79565b10156102ad57600080fd5b600160009054906101000a900473ffffffffffffffffffffffffffffffffffffffff1673ffffffffffffffffffffffffffffffffffffffff1663a9059cbb33836040518363ffffffff1660e01b815260040161030a929190610c74565b602060405180830381600087803b15801561032457600080fd5b505af1158015610338573d6000803e3d6000fd5b505050506040513d601f19601f8201168201806040525081019061035c9190610b1f565b61036557600080fd5b80600360008282546103779190610d4e565b925050819055507f5e5e995ce3133561afceaa51a9a154d5db228cd7525d34df5185582c18d3df0933826040516103af929190610c74565b60405180910390a150565b60008054906101000a900473ffffffffffffffffffffffffffffffffffffffff1673ffffffffffffffffffffffffffffffffffffffff163373ffffffffffffffffffffffffffffffffffffffff161461041257600080fd5b600160009054906101000a900473ffffffffffffffffffffffffffffffffffffffff1673ffffffffffffffffffffffffffffffffffffffff1663a9059cbb60008054906101000a900473ffffffffffffffffffffffffffffffffffffffff16600160009054906101000a900473ffffffffffffffffffffffffffffffffffffffff1673ffffffffffffffffffffffffffffffffffffffff166370a08231306040518263ffffffff1660e01b81526004016104cc9190610c22565b60206040518083038186803b1580156104e457600080fd5b505afa1580156104f8573d6000803e3d6000fd5b505050506040513d601f19601f8201168201806040525081019061051c9190610b79565b6040518363ffffffff1660e01b8152600401610539929190610c74565b602060405180830381600087803b15801561055357600080fd5b505af1158015610567573d6000803e3d6000fd5b505050506040513d601f19601f8201168201806040525081019061058b9190610b1f565b61059457600080fd5b3373ffffffffffffffffffffffffffffffffffffffff16ff5b60035481565b600160009054906101000a900473ffffffffffffffffffffffffffffffffffffffff1681565b60025481565b6000600160009054906101000a900473ffffffffffffffffffffffffffffffffffffffff1673ffffffffffffffffffffffffffffffffffffffff166370a08231336040518263ffffffff1660e01b815260040161063c9190610c22565b60206040518083038186803b15801561065457600080fd5b505afa158015610668573d6000803e3d6000fd5b505050506040513d601f19601f8201168201806040525081019061068c9190610b79565b83111561069857600080fd5b600460003373ffffffffffffffffffffffffffffffffffffffff1673ffffffffffffffffffffffffffffffffffffffff1681526020019081526020016000206040518060400160405280858152602001848152509080600181540180825580915050600190039060005260206000209060020201600090919091909150600082015181600001556020820151816001015550507f5a3ef0eb7e2025b3d9e0ebf9185fb0c4f3fc3caf0f2b3ee6fe62fc4c2cbf580433848460405161075e93929190610c9d565b60405180910390a16001905092915050565b6000600460008573ffffffffffffffffffffffffffffffffffffffff1673ffffffffffffffffffffffffffffffffffffffff1681526020019081526020016000208260ff16815481106107c6576107c5610f69565b5b9060005260206000209060020201600001548311156107e457600080fd5b61085383600460008773ffffffffffffffffffffffffffffffffffffffff1673ffffffffffffffffffffffffffffffffffffffff1681526020019081526020016000208460ff168154811061083c5761083b610f69565b5b9060005260206000209060020201600101546109e0565b341461085e57600080fd5b600160009054906101000a900473ffffffffffffffffffffffffffffffffffffffff1673ffffffffffffffffffffffffffffffffffffffff1663f14f0c3e8533866040518463ffffffff1660e01b81526004016108bd93929190610c3d565b602060405180830381600087803b1580156108d757600080fd5b505af11580156108eb573d6000803e3d6000fd5b505050506040513d601f19601f8201168201806040525081019061090f9190610b1f565b61091857600080fd5b82600460008673ffffffffffffffffffffffffffffffffffffffff1673ffffffffffffffffffffffffffffffffffffffff1681526020019081526020016000208360ff168154811061096d5761096c610f69565b5b9060005260206000209060020201600001600082825461098d9190610e2f565b92505081905550600190509392505050565b600460205281600052604060002081815481106109bb57600080fd5b9060005260206000209060020201600091509150508060000154908060010154905082565b6000808314156109f35760009050610a1d565b81836109ff9190610dd5565b9050818382610a0e9190610da4565b14610a1c57610a1b610edc565b5b5b92915050565b600081359050610a3281610f9d565b92915050565b600081519050610a4781610fb4565b92915050565b600081359050610a5c81610fcb565b92915050565b600081519050610a7181610fcb565b92915050565b600081359050610a8681610fe2565b92915050565b60008060408385031215610aa357610aa2610f98565b5b6000610ab185828601610a23565b9250506020610ac285828601610a4d565b9150509250929050565b600080600060608486031215610ae557610ae4610f98565b5b6000610af386828701610a23565b9350506020610b0486828701610a4d565b9250506040610b1586828701610a77565b9150509250925092565b600060208284031215610b3557610b34610f98565b5b6000610b4384828501610a38565b91505092915050565b600060208284031215610b6257610b61610f98565b5b6000610b7084828501610a4d565b91505092915050565b600060208284031215610b8f57610b8e610f98565b5b6000610b9d84828501610a62565b91505092915050565b60008060408385031215610bbd57610bbc610f98565b5b6000610bcb85828601610a4d565b9250506020610bdc85828601610a4d565b9150509250929050565b610bef81610e63565b82525050565b610bfe81610e75565b82525050565b610c0d81610eb8565b82525050565b610c1c81610ea1565b82525050565b6000602082019050610c376000830184610be6565b92915050565b6000606082019050610c526000830186610be6565b610c5f6020830185610be6565b610c6c6040830184610c13565b949350505050565b6000604082019050610c896000830185610be6565b610c966020830184610c13565b9392505050565b6000606082019050610cb26000830186610be6565b610cbf6020830185610c13565b610ccc6040830184610c13565b949350505050565b6000602082019050610ce96000830184610bf5565b92915050565b6000602082019050610d046000830184610c04565b92915050565b6000602082019050610d1f6000830184610c13565b92915050565b6000604082019050610d3a6000830185610c13565b610d476020830184610c13565b9392505050565b6000610d5982610ea1565b9150610d6483610ea1565b9250827fffffffffffffffffffffffffffffffffffffffffffffffffffffffffffffffff03821115610d9957610d98610f0b565b5b828201905092915050565b6000610daf82610ea1565b9150610dba83610ea1565b925082610dca57610dc9610f3a565b5b828204905092915050565b6000610de082610ea1565b9150610deb83610ea1565b9250817fffffffffffffffffffffffffffffffffffffffffffffffffffffffffffffffff0483118215151615610e2457610e23610f0b565b5b828202905092915050565b6000610e3a82610ea1565b9150610e4583610ea1565b925082821015610e5857610e57610f0b565b5b828203905092915050565b6000610e6e82610e81565b9050919050565b60008115159050919050565b600073ffffffffffffffffffffffffffffffffffffffff82169050919050565b6000819050919050565b600060ff82169050919050565b6000610ec382610eca565b9050919050565b6000610ed582610e81565b9050919050565b7f4e487b7100000000000000000000000000000000000000000000000000000000600052600160045260246000fd5b7f4e487b7100000000000000000000000000000000000000000000000000000000600052601160045260246000fd5b7f4e487b7100000000000000000000000000000000000000000000000000000000600052601260045260246000fd5b7f4e487b7100000000000000000000000000000000000000000000000000000000600052603260045260246000fd5b600080fd5b610fa681610e63565b8114610fb157600080fd5b50565b610fbd81610e75565b8114610fc857600080fd5b50565b610fd481610ea1565b8114610fdf57600080fd5b50565b610feb81610eab565b8114610ff657600080fd5b5056fea2646970667358221220fe00dd59abf2d9e6520cd568d2f07f0edc6eaacc3c7c382aa41a85088d5f778b64736f6c63430008060033",
  "immutableReferences": {},
  "source": "// SPDX-License-Identifier: UNLICENSED\npragma solidity >=0.7.0 <0.9.0;\n\nimport './ImmoToken.sol';\n\ncontract ImmoTokenSale {\n    address admin; \n    ImmoToken public tokenContract;\n    uint256 public tokenPrice;\n    uint256 public tokensSold;\n    event Sell(\n        address _buyer,\n        uint256 _amount\n    );\n    struct Offer{\n        uint256 amount;\n        uint256 price;\n    }\n    event SellOffer(\n        address _seller,\n        uint256 _amount,\n        uint256 _price\n   );\n\n    mapping(address => Offer[]) public offerBooking;\n\n    constructor(ImmoToken _tokenContract, uint256 _tokenPrice) {\n        //assign an admin\n        admin = msg.sender;\n        //token contract\n        tokenContract = _tokenContract;\n        //token price\n        tokenPrice = _tokenPrice;\n    }\n    function mul(uint256 a, uint256 b) internal pure returns (uint256 c) {\n        if (a == 0) {\n        return 0;\n        }\n        c = a * b;\n        assert(c / a == b);\n        return c;\n    }\n    function buyTokens(uint256 _numberOfTokens) public payable{\n        //require that the value is equal to tokens \n        require(msg.value == mul(_numberOfTokens , tokenPrice));\n        //require that there are enough tokens left to sale\n        require(tokenContract.balanceOf(address(this)) >= _numberOfTokens);\n        //require transfer is successful\n        require(tokenContract.transfer(msg.sender, _numberOfTokens));\n        //keep track of tokens sold\n        tokensSold += _numberOfTokens;\n        //trigger sell event\n        emit Sell(msg.sender,_numberOfTokens);\n    }\n\n    function bookOffer(uint256 _numberOfTokens, uint256 _price) public returns (bool success) {\n        //require msg.sender has enough tokens\n        require(_numberOfTokens <= tokenContract.balanceOf(msg.sender));\n        //book the offer\n        offerBooking[msg.sender].push(Offer({amount:_numberOfTokens,price:_price}));\n        //emit the event\n        emit SellOffer(msg.sender, _numberOfTokens, _price);\n        return true;\n    }\n    function buyOffer(address _seller, uint256 _numberOfTokens, uint8 _index) public payable returns (bool success){\n        //require that there are enough tokens left to sale \n        require(_numberOfTokens <= offerBooking[_seller][_index].amount);\n        //require that the value is equal to tokens \n        require(msg.value == mul(_numberOfTokens , offerBooking[_seller][_index].price));\n        // transfer to the buyer from the seller\n        require(tokenContract.offerTransfer(_seller, msg.sender, _numberOfTokens));\n        offerBooking[_seller][_index].amount-= _numberOfTokens;\n        //transfer event\n        //emit Transfer(_seller, msg.sender, _numberOfTokens);\n        return true;\n    }\n    //Ending Token Sale\n    function endSale() public {\n        //require that only an admin can do this\n        require(msg.sender == admin);\n        //transfer the amount of tokens left to the admin\n        require(tokenContract.transfer(admin, tokenContract.balanceOf(address(this))));\n        //destroy contract\n        selfdestruct(payable(msg.sender));    \n    }\n}",
  "sourcePath": "/Users/selim/Documents/8.Coding/2.Projects/1.Etherente/Real-Estate-Token-Exchange-Fullstack/contracts/ImmoTokenSale.sol",
  "compiler": {
    "name": "solc",
    "version": "0.8.6+commit.11564f7e.Emscripten.clang"
  },
  "schemaVersion": "3.1.0",
  "updatedAt": "2021-08-02T18:01:46.976Z",
  "networkType": "ethereum",
  "devdoc": {
    "kind": "dev",
    "methods": {},
    "version": 1
  },
  "userdoc": {
    "kind": "user",
    "methods": {},
    "version": 1
  }
}