{
  "contractName": "ImmoToken",
  "abi": [
    {
      "inputs": [
        {
          "internalType": "uint256",
          "name": "_initialSupply",
          "type": "uint256"
        }
      ],
      "stateMutability": "nonpayable",
      "type": "constructor"
    },
    {
      "anonymous": false,
      "inputs": [
        {
          "indexed": true,
          "internalType": "address",
          "name": "_owner",
          "type": "address"
        },
        {
          "indexed": true,
          "internalType": "address",
          "name": "_spender",
          "type": "address"
        },
        {
          "indexed": false,
          "internalType": "uint256",
          "name": "_value",
          "type": "uint256"
        }
      ],
      "name": "Approval",
      "type": "event"
    },
    {
      "anonymous": false,
      "inputs": [
        {
          "indexed": true,
          "internalType": "address",
          "name": "_from",
          "type": "address"
        },
        {
          "indexed": true,
          "internalType": "address",
          "name": "_to",
          "type": "address"
        },
        {
          "indexed": false,
          "internalType": "uint256",
          "name": "_value",
          "type": "uint256"
        }
      ],
      "name": "Transfer",
      "type": "event"
    },
    {
      "inputs": [
        {
          "internalType": "address",
          "name": "",
          "type": "address"
        },
        {
          "internalType": "address",
          "name": "",
          "type": "address"
        }
      ],
      "name": "allowance",
      "outputs": [
        {
          "internalType": "uint256",
          "name": "",
          "type": "uint256"
        }
      ],
      "stateMutability": "view",
      "type": "function",
      "constant": true
    },
    {
      "inputs": [
        {
          "internalType": "address",
          "name": "",
          "type": "address"
        }
      ],
      "name": "balanceOf",
      "outputs": [
        {
          "internalType": "uint256",
          "name": "",
          "type": "uint256"
        }
      ],
      "stateMutability": "view",
      "type": "function",
      "constant": true
    },
    {
      "inputs": [],
      "name": "saleContract",
      "outputs": [
        {
          "internalType": "address",
          "name": "",
          "type": "address"
        }
      ],
      "stateMutability": "view",
      "type": "function",
      "constant": true
    },
    {
      "inputs": [],
      "name": "symbol",
      "outputs": [
        {
          "internalType": "string",
          "name": "",
          "type": "string"
        }
      ],
      "stateMutability": "view",
      "type": "function",
      "constant": true
    },
    {
      "inputs": [],
      "name": "title",
      "outputs": [
        {
          "internalType": "string",
          "name": "",
          "type": "string"
        }
      ],
      "stateMutability": "view",
      "type": "function",
      "constant": true
    },
    {
      "inputs": [],
      "name": "totalSupply",
      "outputs": [
        {
          "internalType": "uint256",
          "name": "",
          "type": "uint256"
        }
      ],
      "stateMutability": "view",
      "type": "function",
      "constant": true
    },
    {
      "inputs": [],
      "name": "version",
      "outputs": [
        {
          "internalType": "string",
          "name": "",
          "type": "string"
        }
      ],
      "stateMutability": "view",
      "type": "function",
      "constant": true
    },
    {
      "inputs": [
        {
          "internalType": "address",
          "name": "_contract",
          "type": "address"
        }
      ],
      "name": "allowContract",
      "outputs": [
        {
          "internalType": "bool",
          "name": "success",
          "type": "bool"
        }
      ],
      "stateMutability": "nonpayable",
      "type": "function"
    },
    {
      "inputs": [
        {
          "internalType": "address",
          "name": "_to",
          "type": "address"
        },
        {
          "internalType": "uint256",
          "name": "_value",
          "type": "uint256"
        }
      ],
      "name": "transfer",
      "outputs": [
        {
          "internalType": "bool",
          "name": "success",
          "type": "bool"
        }
      ],
      "stateMutability": "nonpayable",
      "type": "function"
    },
    {
      "inputs": [
        {
          "internalType": "address",
          "name": "_spender",
          "type": "address"
        },
        {
          "internalType": "uint256",
          "name": "_value",
          "type": "uint256"
        }
      ],
      "name": "approve",
      "outputs": [
        {
          "internalType": "bool",
          "name": "success",
          "type": "bool"
        }
      ],
      "stateMutability": "nonpayable",
      "type": "function"
    },
    {
      "inputs": [
        {
          "internalType": "address",
          "name": "_from",
          "type": "address"
        },
        {
          "internalType": "address",
          "name": "_to",
          "type": "address"
        },
        {
          "internalType": "uint256",
          "name": "_value",
          "type": "uint256"
        }
      ],
      "name": "transferFrom",
      "outputs": [
        {
          "internalType": "bool",
          "name": "success",
          "type": "bool"
        }
      ],
      "stateMutability": "nonpayable",
      "type": "function"
    },
    {
      "inputs": [
        {
          "internalType": "address",
          "name": "_from",
          "type": "address"
        },
        {
          "internalType": "address",
          "name": "_to",
          "type": "address"
        },
        {
          "internalType": "uint256",
          "name": "_value",
          "type": "uint256"
        }
      ],
      "name": "offerTransfer",
      "outputs": [
        {
          "internalType": "bool",
          "name": "success",
          "type": "bool"
        }
      ],
      "stateMutability": "nonpayable",
      "type": "function"
    }
  ],
  "bytecode": "0x60806040526040518060600160405280602881526020016200136560289139600090805190602001906200003592919062000157565b506040518060400160405280600581526020017f53746f6e65000000000000000000000000000000000000000000000000000000815250600190805190602001906200008392919062000157565b506040518060400160405280600f81526020017f496d6d6f20546f6b656e2076312e30000000000000000000000000000000000081525060029080519060200190620000d192919062000157565b50348015620000df57600080fd5b506040516200138d3803806200138d83398181016040528101906200010591906200021e565b80600560003373ffffffffffffffffffffffffffffffffffffffff1673ffffffffffffffffffffffffffffffffffffffff168152602001908152602001600020819055508060038190555050620002de565b82805462000165906200025a565b90600052602060002090601f016020900481019282620001895760008555620001d5565b82601f10620001a457805160ff1916838001178555620001d5565b82800160010185558215620001d5579182015b82811115620001d4578251825591602001919060010190620001b7565b5b509050620001e49190620001e8565b5090565b5b8082111562000203576000816000905550600101620001e9565b5090565b6000815190506200021881620002c4565b92915050565b600060208284031215620002375762000236620002bf565b5b6000620002478482850162000207565b91505092915050565b6000819050919050565b600060028204905060018216806200027357607f821691505b602082108114156200028a576200028962000290565b5b50919050565b7f4e487b7100000000000000000000000000000000000000000000000000000000600052602260045260246000fd5b600080fd5b620002cf8162000250565b8114620002db57600080fd5b50565b61107780620002ee6000396000f3fe608060405234801561001057600080fd5b50600436106100b45760003560e01c806395d89b411161007157806395d89b41146101a3578063a9059cbb146101c1578063daf6ca30146101f1578063dd62ed3e1461020f578063f14f0c3e1461023f578063f6bd02fa1461026f576100b4565b8063095ea7b3146100b957806318160ddd146100e957806323b872dd146101075780634a79d50c1461013757806354fd4d501461015557806370a0823114610173575b600080fd5b6100d360048036038101906100ce9190610d33565b61029f565b6040516100e09190610df4565b60405180910390f35b6100f16103dd565b6040516100fe9190610e31565b60405180910390f35b610121600480360381019061011c9190610ce0565b6103e3565b60405161012e9190610df4565b60405180910390f35b61013f610669565b60405161014c9190610e0f565b60405180910390f35b61015d6106f7565b60405161016a9190610e0f565b60405180910390f35b61018d60048036038101906101889190610c73565b610785565b60405161019a9190610e31565b60405180910390f35b6101ab61079d565b6040516101b89190610e0f565b60405180910390f35b6101db60048036038101906101d69190610d33565b61082b565b6040516101e89190610df4565b60405180910390f35b6101f9610994565b6040516102069190610dd9565b60405180910390f35b61022960048036038101906102249190610ca0565b6109ba565b6040516102369190610e31565b60405180910390f35b61025960048036038101906102549190610ce0565b6109df565b6040516102669190610df4565b60405180910390f35b61028960048036038101906102849190610c73565b610ba3565b6040516102969190610df4565b60405180910390f35b6000600560003373ffffffffffffffffffffffffffffffffffffffff1673ffffffffffffffffffffffffffffffffffffffff168152602001908152602001600020548211156102ed57600080fd5b81600660003373ffffffffffffffffffffffffffffffffffffffff1673ffffffffffffffffffffffffffffffffffffffff16815260200190815260200160002060008573ffffffffffffffffffffffffffffffffffffffff1673ffffffffffffffffffffffffffffffffffffffff168152602001908152602001600020819055508273ffffffffffffffffffffffffffffffffffffffff163373ffffffffffffffffffffffffffffffffffffffff167f8c5be1e5ebec7d5bd14f71427d1e84f3dd0314c0f7b2291e5b200ac8c7c3b925846040516103cb9190610e31565b60405180910390a36001905092915050565b60035481565b6000600560008573ffffffffffffffffffffffffffffffffffffffff1673ffffffffffffffffffffffffffffffffffffffff1681526020019081526020016000205482111561043157600080fd5b600660008573ffffffffffffffffffffffffffffffffffffffff1673ffffffffffffffffffffffffffffffffffffffff16815260200190815260200160002060003373ffffffffffffffffffffffffffffffffffffffff1673ffffffffffffffffffffffffffffffffffffffff168152602001908152602001600020548211156104ba57600080fd5b81600560008673ffffffffffffffffffffffffffffffffffffffff1673ffffffffffffffffffffffffffffffffffffffff16815260200190815260200160002060008282546105099190610ebe565b9250508190555081600560008573ffffffffffffffffffffffffffffffffffffffff1673ffffffffffffffffffffffffffffffffffffffff168152602001908152602001600020600082825461055f9190610e68565b9250508190555081600660008673ffffffffffffffffffffffffffffffffffffffff1673ffffffffffffffffffffffffffffffffffffffff16815260200190815260200160002060003373ffffffffffffffffffffffffffffffffffffffff1673ffffffffffffffffffffffffffffffffffffffff16815260200190815260200160002060008282546105f29190610ebe565b925050819055508273ffffffffffffffffffffffffffffffffffffffff168473ffffffffffffffffffffffffffffffffffffffff167fddf252ad1be2c89b69c2b068fc378daa952ba7f163c4a11628f55a4df523b3ef846040516106569190610e31565b60405180910390a3600190509392505050565b6000805461067690610f6d565b80601f01602080910402602001604051908101604052809291908181526020018280546106a290610f6d565b80156106ef5780601f106106c4576101008083540402835291602001916106ef565b820191906000526020600020905b8154815290600101906020018083116106d257829003601f168201915b505050505081565b6002805461070490610f6d565b80601f016020809104026020016040519081016040528092919081815260200182805461073090610f6d565b801561077d5780601f106107525761010080835404028352916020019161077d565b820191906000526020600020905b81548152906001019060200180831161076057829003601f168201915b505050505081565b60056020528060005260406000206000915090505481565b600180546107aa90610f6d565b80601f01602080910402602001604051908101604052809291908181526020018280546107d690610f6d565b80156108235780601f106107f857610100808354040283529160200191610823565b820191906000526020600020905b81548152906001019060200180831161080657829003601f168201915b505050505081565b600081600560003373ffffffffffffffffffffffffffffffffffffffff1673ffffffffffffffffffffffffffffffffffffffff16815260200190815260200160002054101561087957600080fd5b81600560003373ffffffffffffffffffffffffffffffffffffffff1673ffffffffffffffffffffffffffffffffffffffff16815260200190815260200160002060008282546108c89190610ebe565b9250508190555081600560008573ffffffffffffffffffffffffffffffffffffffff1673ffffffffffffffffffffffffffffffffffffffff168152602001908152602001600020600082825461091e9190610e68565b925050819055508273ffffffffffffffffffffffffffffffffffffffff163373ffffffffffffffffffffffffffffffffffffffff167fddf252ad1be2c89b69c2b068fc378daa952ba7f163c4a11628f55a4df523b3ef846040516109829190610e31565b60405180910390a36001905092915050565b600460009054906101000a900473ffffffffffffffffffffffffffffffffffffffff1681565b6006602052816000526040600020602052806000526040600020600091509150505481565b6000600460009054906101000a900473ffffffffffffffffffffffffffffffffffffffff1673ffffffffffffffffffffffffffffffffffffffff163373ffffffffffffffffffffffffffffffffffffffff1614610a3b57600080fd5b600560008573ffffffffffffffffffffffffffffffffffffffff1673ffffffffffffffffffffffffffffffffffffffff16815260200190815260200160002054821115610a8757600080fd5b81600560008673ffffffffffffffffffffffffffffffffffffffff1673ffffffffffffffffffffffffffffffffffffffff1681526020019081526020016000206000828254610ad69190610ebe565b9250508190555081600560008573ffffffffffffffffffffffffffffffffffffffff1673ffffffffffffffffffffffffffffffffffffffff1681526020019081526020016000206000828254610b2c9190610e68565b925050819055508273ffffffffffffffffffffffffffffffffffffffff168473ffffffffffffffffffffffffffffffffffffffff167fddf252ad1be2c89b69c2b068fc378daa952ba7f163c4a11628f55a4df523b3ef84604051610b909190610e31565b60405180910390a3600190509392505050565b60008073ffffffffffffffffffffffffffffffffffffffff16600460009054906101000a900473ffffffffffffffffffffffffffffffffffffffff1673ffffffffffffffffffffffffffffffffffffffff1614610bff57600080fd5b81600460006101000a81548173ffffffffffffffffffffffffffffffffffffffff021916908373ffffffffffffffffffffffffffffffffffffffff16021790555060019050919050565b600081359050610c5881611013565b92915050565b600081359050610c6d8161102a565b92915050565b600060208284031215610c8957610c88610ffd565b5b6000610c9784828501610c49565b91505092915050565b60008060408385031215610cb757610cb6610ffd565b5b6000610cc585828601610c49565b9250506020610cd685828601610c49565b9150509250929050565b600080600060608486031215610cf957610cf8610ffd565b5b6000610d0786828701610c49565b9350506020610d1886828701610c49565b9250506040610d2986828701610c5e565b9150509250925092565b60008060408385031215610d4a57610d49610ffd565b5b6000610d5885828601610c49565b9250506020610d6985828601610c5e565b9150509250929050565b610d7c81610ef2565b82525050565b610d8b81610f04565b82525050565b6000610d9c82610e4c565b610da68185610e57565b9350610db6818560208601610f3a565b610dbf81611002565b840191505092915050565b610dd381610f30565b82525050565b6000602082019050610dee6000830184610d73565b92915050565b6000602082019050610e096000830184610d82565b92915050565b60006020820190508181036000830152610e298184610d91565b905092915050565b6000602082019050610e466000830184610dca565b92915050565b600081519050919050565b600082825260208201905092915050565b6000610e7382610f30565b9150610e7e83610f30565b9250827fffffffffffffffffffffffffffffffffffffffffffffffffffffffffffffffff03821115610eb357610eb2610f9f565b5b828201905092915050565b6000610ec982610f30565b9150610ed483610f30565b925082821015610ee757610ee6610f9f565b5b828203905092915050565b6000610efd82610f10565b9050919050565b60008115159050919050565b600073ffffffffffffffffffffffffffffffffffffffff82169050919050565b6000819050919050565b60005b83811015610f58578082015181840152602081019050610f3d565b83811115610f67576000848401525b50505050565b60006002820490506001821680610f8557607f821691505b60208210811415610f9957610f98610fce565b5b50919050565b7f4e487b7100000000000000000000000000000000000000000000000000000000600052601160045260246000fd5b7f4e487b7100000000000000000000000000000000000000000000000000000000600052602260045260246000fd5b600080fd5b6000601f19601f8301169050919050565b61101c81610ef2565b811461102757600080fd5b50565b61103381610f30565b811461103e57600080fd5b5056fea2646970667358221220829bfa32b60095c2f70b118aec8e50604945b385ef27bee884af4feda69293bb64736f6c6343000806003335352035372072756520647520466175626f757267205361696e7420486f6e6f7265203735303038",
  "immutableReferences": {},
  "source": "// SPDX-License-Identifier: UNLICENSED\n\npragma solidity >=0.7.0 <0.9.0;\n\ncontract ImmoToken {\n   \n\n    string public title = \"55 57 rue du Faubourg Saint Honore 75008\";\n    string public symbol = \"Stone\";\n    string public version = \"Immo Token v1.0\";\n    uint256 public totalSupply;\n    address public saleContract;\n    \n    event Transfer(\n        address indexed _from, \n        address indexed _to, \n        uint256 _value\n        );\n    event Approval(\n        address indexed _owner, \n        address indexed _spender, \n        uint256 _value\n        );\n \n    mapping(address => uint256) public balanceOf;\n    mapping(address => mapping(address  => uint256)) public allowance; //offre de vente;\n    \n    constructor(uint256 _initialSupply)  {\n        balanceOf[msg.sender] = _initialSupply;\n        totalSupply = _initialSupply;   \n    }\n\n    function allowContract(address _contract) public returns (bool success){\n        require(saleContract == address(0));\n        saleContract = _contract;\n        return true;\n    }\n    function transfer(address _to, uint256 _value) public returns (bool success) {\n        // revert if sender credit is not enough\n        require(balanceOf[msg.sender] >= _value);\n        // transfer to the recipient from the sender \n        balanceOf[msg.sender] -= _value;\n        balanceOf[_to] += _value;\n        // transfer event\n        emit Transfer(msg.sender, _to, _value);\n        return true;\n    }\n    //Delegated transfer\n        //Approve \n    function approve(address _spender, uint256 _value) public returns (bool success){\n        //require sender has enough tokens to allow\n        require(_value <= balanceOf[msg.sender]);\n        // allowance\n        allowance[msg.sender][_spender] = _value;\n        //Approve event\n        emit Approval(msg.sender, _spender, _value);\n        return true;\n    }\n    //TransferFrom\n    function transferFrom(address _from, address _to, uint256 _value) public returns (bool success){\n        //require _from has enough tokens\n        require(_value <= balanceOf[_from]);\n        //require allowance is big enough\n        require(_value <= allowance[_from][msg.sender]);\n        //change the balance\n        balanceOf[_from] -= _value;\n        balanceOf[_to] += _value;\n        //update the allowance\n        allowance[_from][msg.sender] -= _value;\n        //transfer event\n        emit Transfer(_from, _to, _value);\n        //return a boolean\n        return true;\n    } \n function offerTransfer(address _from, address _to, uint256 _value) public returns (bool success){\n        //msg.sender needs to be the allowed saleContract\n        require(msg.sender == saleContract);\n        //require _from has enough tokens\n        require(_value <= balanceOf[_from]);\n        //change the balance\n        balanceOf[_from] -= _value;\n        balanceOf[_to] += _value;\n        //transfer event\n        emit Transfer(_from, _to, _value);\n        //return a boolean\n        return true;\n    } \n  \n} ",
  "sourcePath": "/Users/selim/Documents/8.Coding/2.Projects/1.Etherente/Real-Estate-Token-Exchange-Fullstack/contracts/ImmoToken.sol",
  "compiler": {
    "name": "solc",
    "version": "0.8.6+commit.11564f7e.Emscripten.clang"
  },
  "schemaVersion": "3.1.0",
  "updatedAt": "2021-08-05T15:23:35.105Z",
  "networkType": "ethereum",
  "devdoc": {
    "kind": "dev",
    "methods": {},
    "version": 1
  },
  "userdoc": {
    "kind": "user",
    "methods": {},
    "version": 1
  }
}