{
  "contractName": "ReceiverPays",
  "abi": [
    {
      "inputs": [],
      "stateMutability": "payable",
      "type": "constructor",
      "payable": true
    },
    {
      "anonymous": false,
      "inputs": [
        {
          "indexed": false,
          "internalType": "address",
          "name": "_sender",
          "type": "address"
        },
        {
          "indexed": false,
          "internalType": "uint256",
          "name": "_amount",
          "type": "uint256"
        }
      ],
      "name": "RentPayment",
      "type": "event"
    },
    {
      "anonymous": false,
      "inputs": [
        {
          "indexed": false,
          "internalType": "address",
          "name": "_sender",
          "type": "address"
        },
        {
          "indexed": false,
          "internalType": "address",
          "name": "_signature",
          "type": "address"
        },
        {
          "indexed": false,
          "internalType": "bytes32",
          "name": "_message",
          "type": "bytes32"
        }
      ],
      "name": "RentSent",
      "type": "event"
    },
    {
      "stateMutability": "payable",
      "type": "receive",
      "payable": true
    },
    {
      "inputs": [
        {
          "internalType": "uint256",
          "name": "amount",
          "type": "uint256"
        },
        {
          "internalType": "uint256",
          "name": "nonce",
          "type": "uint256"
        },
        {
          "internalType": "bytes",
          "name": "signature",
          "type": "bytes"
        }
      ],
      "name": "claimPayment",
      "outputs": [],
      "stateMutability": "nonpayable",
      "type": "function"
    },
    {
      "inputs": [
        {
          "internalType": "address",
          "name": "reciever",
          "type": "address"
        },
        {
          "internalType": "uint256",
          "name": "amount",
          "type": "uint256"
        },
        {
          "internalType": "uint256",
          "name": "nonce",
          "type": "uint256"
        }
      ],
      "name": "getHashedMessage",
      "outputs": [
        {
          "internalType": "bytes32",
          "name": "",
          "type": "bytes32"
        }
      ],
      "stateMutability": "view",
      "type": "function",
      "constant": true
    },
    {
      "inputs": [],
      "name": "shutdown",
      "outputs": [],
      "stateMutability": "nonpayable",
      "type": "function"
    }
  ],
  "bytecode": "0x6080604052336000806101000a81548173ffffffffffffffffffffffffffffffffffffffff021916908373ffffffffffffffffffffffffffffffffffffffff1602179055506108ba806100536000396000f3fe6080604052600436106100385760003560e01c8063018884471461007d578063a90ae887146100ba578063fc0e74d1146100e357610078565b36610078577ffbfb5c3838edba49f86bf92ac506367c2bb6d474fa7cbadfd4f5618c9c665a48333460405161006e9291906105e1565b60405180910390a1005b600080fd5b34801561008957600080fd5b506100a4600480360381019061009f91906103b9565b6100fa565b6040516100b1919061060a565b60405180910390f35b3480156100c657600080fd5b506100e160048036038101906100dc919061040c565b61013a565b005b3480156100ef57600080fd5b506100f86101dd565b005b6000610131848484306040516020016101169493929190610536565b6040516020818303038152906040528051906020012061024e565b90509392505050565b6000610171338585306040516020016101569493929190610536565b6040516020818303038152906040528051906020012061024e565b90507f576583b9a9db090f8e2b51381fa28a1ef33152fd9bb91f36a163d5956f35ab2061019e828461027e565b60008054906101000a900473ffffffffffffffffffffffffffffffffffffffff16836040516101cf939291906105aa565b60405180910390a150505050565b60008054906101000a900473ffffffffffffffffffffffffffffffffffffffff1673ffffffffffffffffffffffffffffffffffffffff163373ffffffffffffffffffffffffffffffffffffffff161461023557600080fd5b3373ffffffffffffffffffffffffffffffffffffffff16ff5b6000816040516020016102619190610584565b604051602081830303815290604052805190602001209050919050565b60008060008061028d856102ed565b925092509250600186848484604051600081526020016040526040516102b69493929190610625565b6020604051602081039080840390855afa1580156102d8573d6000803e3d6000fd5b50505060206040510351935050505092915050565b6000806000604184511461030057600080fd5b6020840151915060408401519050606084015160001a92509193909250565b600061033261032d8461068f565b61066a565b90508281526020810184848401111561034e5761034d610800565b5b610359848285610742565b509392505050565b60008135905061037081610856565b92915050565b600082601f83011261038b5761038a6107fb565b5b813561039b84826020860161031f565b91505092915050565b6000813590506103b38161086d565b92915050565b6000806000606084860312156103d2576103d161080a565b5b60006103e086828701610361565b93505060206103f1868287016103a4565b9250506040610402868287016103a4565b9150509250925092565b6000806000606084860312156104255761042461080a565b5b6000610433868287016103a4565b9350506020610444868287016103a4565b925050604084013567ffffffffffffffff81111561046557610464610805565b5b61047186828701610376565b9150509250925092565b610484816106cb565b82525050565b61049b610496826106cb565b610782565b82525050565b6104aa816106dd565b82525050565b6104c16104bc826106dd565b6107a6565b82525050565b6104d86104d38261071e565b610794565b82525050565b60006104eb601c836106c0565b91506104f68261082d565b601c82019050919050565b61050a81610707565b82525050565b61052161051c82610707565b6107c2565b82525050565b61053081610711565b82525050565b6000610542828761048a565b6014820191506105528286610510565b6020820191506105628285610510565b60208201915061057282846104c7565b60148201915081905095945050505050565b600061058f826104de565b915061059b82846104b0565b60208201915081905092915050565b60006060820190506105bf600083018661047b565b6105cc602083018561047b565b6105d960408301846104a1565b949350505050565b60006040820190506105f6600083018561047b565b6106036020830184610501565b9392505050565b600060208201905061061f60008301846104a1565b92915050565b600060808201905061063a60008301876104a1565b6106476020830186610527565b61065460408301856104a1565b61066160608301846104a1565b95945050505050565b6000610674610685565b90506106808282610751565b919050565b6000604051905090565b600067ffffffffffffffff8211156106aa576106a96107cc565b5b6106b38261080f565b9050602081019050919050565b600081905092915050565b60006106d6826106e7565b9050919050565b6000819050919050565b600073ffffffffffffffffffffffffffffffffffffffff82169050919050565b6000819050919050565b600060ff82169050919050565b600061072982610730565b9050919050565b600061073b826106e7565b9050919050565b82818337600083830152505050565b61075a8261080f565b810181811067ffffffffffffffff82111715610779576107786107cc565b5b80604052505050565b600061078d826107b0565b9050919050565b600061079f826107b0565b9050919050565b6000819050919050565b60006107bb82610820565b9050919050565b6000819050919050565b7f4e487b7100000000000000000000000000000000000000000000000000000000600052604160045260246000fd5b600080fd5b600080fd5b600080fd5b600080fd5b6000601f19601f8301169050919050565b60008160601b9050919050565b7f19457468657265756d205369676e6564204d6573736167653a0a333200000000600082015250565b61085f816106cb565b811461086a57600080fd5b50565b61087681610707565b811461088157600080fd5b5056fea2646970667358221220a477f141b672a413b6f82175ba8002046783cf5765762f75888a4698917ceec564736f6c63430008060033",
  "immutableReferences": {},
  "source": "// SPDX-License-Identifier: GPL-3.0\npragma solidity >=0.7.0 <0.9.0;\ncontract ReceiverPays {\n    address owner = msg.sender;\n    mapping(uint256 => bool) usedNonces;\n    event RentPayment(address _sender, uint _amount);\n    event RentSent(address _sender, address _signature, bytes32 _message);\n\n    constructor() payable {\n\n    }\n\n    function claimPayment(uint256 amount, uint256 nonce, bytes memory signature) public {\n        //require(!usedNonces[nonce]);\n        // this recreates the message that was signed on the client\n        bytes32 message = prefixed(keccak256(abi.encodePacked(msg.sender, amount, nonce, this)));\n\n       //require(recoverSigner(message, signature) == owner);\n        emit RentSent(recoverSigner(message, signature), owner, message);\n        //usedNonces[nonce] = true;\n        //payable(msg.sender).transfer(amount);\n    }\n\n    function getHashedMessage(address reciever, uint256 amount, uint256 nonce) view public returns (bytes32) {\n       return prefixed(keccak256(abi.encodePacked(reciever, amount, nonce, this)));\n    }\n\n     /// destroy the contract and reclaim the leftover funds.\n    function shutdown() public {\n        require(msg.sender == owner);\n        selfdestruct(payable(msg.sender));\n    }\n\n    /// signature methods.\n    function splitSignature(bytes memory sig)\n        internal\n        pure\n        returns (uint8 v, bytes32 r, bytes32 s)\n    {\n        require(sig.length == 65);\n\n        assembly {\n            // first 32 bytes, after the length prefix.\n            r := mload(add(sig, 32))\n            // second 32 bytes.\n            s := mload(add(sig, 64))\n            // final byte (first byte of the next 32 bytes).\n            v := byte(0, mload(add(sig, 96)))\n        }\n\n        return (v, r, s);\n    }\n\n    function recoverSigner(bytes32 message, bytes memory sig)\n        internal\n        pure\n        returns (address)\n    {\n        (uint8 v, bytes32 r, bytes32 s) = splitSignature(sig);\n\n        return ecrecover(message, v, r, s);\n    }\n\n    /// builds a prefixed hash to mimic the behavior of eth_sign.\n    function prefixed(bytes32 hash) internal pure returns (bytes32) {\n        return keccak256(abi.encodePacked(\"\\x19Ethereum Signed Message:\\n32\", hash));\n    }\n\n    // emit rent payment event when recieved\n    receive() external payable {\n        emit RentPayment(msg.sender, msg.value);\n    }\n}",
  "sourcePath": "/Users/selim/Documents/8.Coding/2.Projects/1.Etherente/Real-Estate-Token-Exchange-Fullstack/contracts/ReceiverPays.sol",
  "compiler": {
    "name": "solc",
    "version": "0.8.6+commit.11564f7e.Emscripten.clang"
  },
  "schemaVersion": "3.1.0",
  "updatedAt": "2021-08-04T08:16:17.770Z",
  "networkType": "ethereum",
  "devdoc": {
    "kind": "dev",
    "methods": {},
    "version": 1
  },
  "userdoc": {
    "kind": "user",
    "methods": {
      "shutdown()": {
        "notice": "destroy the contract and reclaim the leftover funds."
      }
    },
    "version": 1
  }
}