{
  "contractName": "ReceiverPays",
  "abi": [
    {
      "inputs": [],
      "stateMutability": "payable",
      "type": "constructor",
      "payable": true
    },
    {
      "anonymous": false,
      "inputs": [
        {
          "indexed": false,
          "internalType": "address",
          "name": "_sender",
          "type": "address"
        },
        {
          "indexed": false,
          "internalType": "uint256",
          "name": "_amount",
          "type": "uint256"
        }
      ],
      "name": "RentPayment",
      "type": "event"
    },
    {
      "anonymous": false,
      "inputs": [
        {
          "indexed": false,
          "internalType": "address",
          "name": "_sender",
          "type": "address"
        },
        {
          "indexed": false,
          "internalType": "address",
          "name": "_signature",
          "type": "address"
        }
      ],
      "name": "RentSent",
      "type": "event"
    },
    {
      "stateMutability": "payable",
      "type": "receive",
      "payable": true
    },
    {
      "inputs": [
        {
          "internalType": "uint256",
          "name": "amount",
          "type": "uint256"
        },
        {
          "internalType": "uint256",
          "name": "nonce",
          "type": "uint256"
        },
        {
          "internalType": "bytes",
          "name": "signature",
          "type": "bytes"
        }
      ],
      "name": "claimPayment",
      "outputs": [],
      "stateMutability": "nonpayable",
      "type": "function"
    },
    {
      "inputs": [
        {
          "internalType": "address",
          "name": "reciever",
          "type": "address"
        },
        {
          "internalType": "uint256",
          "name": "amount",
          "type": "uint256"
        },
        {
          "internalType": "uint256",
          "name": "nonce",
          "type": "uint256"
        }
      ],
      "name": "getHashedMessage",
      "outputs": [
        {
          "internalType": "bytes32",
          "name": "",
          "type": "bytes32"
        }
      ],
      "stateMutability": "view",
      "type": "function",
      "constant": true
    },
    {
      "inputs": [],
      "name": "shutdown",
      "outputs": [],
      "stateMutability": "nonpayable",
      "type": "function"
    }
  ],
  "bytecode": "0x6080604052336000806101000a81548173ffffffffffffffffffffffffffffffffffffffff021916908373ffffffffffffffffffffffffffffffffffffffff1602179055506108aa806100536000396000f3fe6080604052600436106100385760003560e01c8063018884471461007d578063a90ae887146100ba578063fc0e74d1146100e357610078565b36610078577ffbfb5c3838edba49f86bf92ac506367c2bb6d474fa7cbadfd4f5618c9c665a48333460405161006e9291906105d1565b60405180910390a1005b600080fd5b34801561008957600080fd5b506100a4600480360381019061009f91906103b7565b6100fa565b6040516100b191906105fa565b60405180910390f35b3480156100c657600080fd5b506100e160048036038101906100dc919061040a565b61013a565b005b3480156100ef57600080fd5b506100f86101db565b005b6000610131848484306040516020016101169493929190610534565b6040516020818303038152906040528051906020012061024c565b90509392505050565b6000610171338585306040516020016101569493929190610534565b6040516020818303038152906040528051906020012061024c565b90507f467eb8a0169e8557b189b5be17a9f1e6e0e5d1d38f052dc0904578711f40dd4961019e828461027c565b60008054906101000a900473ffffffffffffffffffffffffffffffffffffffff166040516101cd9291906105a8565b60405180910390a150505050565b60008054906101000a900473ffffffffffffffffffffffffffffffffffffffff1673ffffffffffffffffffffffffffffffffffffffff163373ffffffffffffffffffffffffffffffffffffffff161461023357600080fd5b3373ffffffffffffffffffffffffffffffffffffffff16ff5b60008160405160200161025f9190610582565b604051602081830303815290604052805190602001209050919050565b60008060008061028b856102eb565b925092509250600186848484604051600081526020016040526040516102b49493929190610615565b6020604051602081039080840390855afa1580156102d6573d6000803e3d6000fd5b50505060206040510351935050505092915050565b600080600060418451146102fe57600080fd5b6020840151915060408401519050606084015160001a92509193909250565b600061033061032b8461067f565b61065a565b90508281526020810184848401111561034c5761034b6107f0565b5b610357848285610732565b509392505050565b60008135905061036e81610846565b92915050565b600082601f830112610389576103886107eb565b5b813561039984826020860161031d565b91505092915050565b6000813590506103b18161085d565b92915050565b6000806000606084860312156103d0576103cf6107fa565b5b60006103de8682870161035f565b93505060206103ef868287016103a2565b9250506040610400868287016103a2565b9150509250925092565b600080600060608486031215610423576104226107fa565b5b6000610431868287016103a2565b9350506020610442868287016103a2565b925050604084013567ffffffffffffffff811115610463576104626107f5565b5b61046f86828701610374565b9150509250925092565b610482816106bb565b82525050565b610499610494826106bb565b610772565b82525050565b6104a8816106cd565b82525050565b6104bf6104ba826106cd565b610796565b82525050565b6104d66104d18261070e565b610784565b82525050565b60006104e9601c836106b0565b91506104f48261081d565b601c82019050919050565b610508816106f7565b82525050565b61051f61051a826106f7565b6107b2565b82525050565b61052e81610701565b82525050565b60006105408287610488565b601482019150610550828661050e565b602082019150610560828561050e565b60208201915061057082846104c5565b60148201915081905095945050505050565b600061058d826104dc565b915061059982846104ae565b60208201915081905092915050565b60006040820190506105bd6000830185610479565b6105ca6020830184610479565b9392505050565b60006040820190506105e66000830185610479565b6105f360208301846104ff565b9392505050565b600060208201905061060f600083018461049f565b92915050565b600060808201905061062a600083018761049f565b6106376020830186610525565b610644604083018561049f565b610651606083018461049f565b95945050505050565b6000610664610675565b90506106708282610741565b919050565b6000604051905090565b600067ffffffffffffffff82111561069a576106996107bc565b5b6106a3826107ff565b9050602081019050919050565b600081905092915050565b60006106c6826106d7565b9050919050565b6000819050919050565b600073ffffffffffffffffffffffffffffffffffffffff82169050919050565b6000819050919050565b600060ff82169050919050565b600061071982610720565b9050919050565b600061072b826106d7565b9050919050565b82818337600083830152505050565b61074a826107ff565b810181811067ffffffffffffffff82111715610769576107686107bc565b5b80604052505050565b600061077d826107a0565b9050919050565b600061078f826107a0565b9050919050565b6000819050919050565b60006107ab82610810565b9050919050565b6000819050919050565b7f4e487b7100000000000000000000000000000000000000000000000000000000600052604160045260246000fd5b600080fd5b600080fd5b600080fd5b600080fd5b6000601f19601f8301169050919050565b60008160601b9050919050565b7f19457468657265756d205369676e6564204d6573736167653a0a333200000000600082015250565b61084f816106bb565b811461085a57600080fd5b50565b610866816106f7565b811461087157600080fd5b5056fea26469706673582212207806e34ec8a26175baa7a06d9f95e639af0f7f7bf5f627db3f30c9276789a77464736f6c63430008060033",
  "immutableReferences": {},
  "source": "// SPDX-License-Identifier: GPL-3.0\npragma solidity >=0.7.0 <0.9.0;\ncontract ReceiverPays {\n    address owner = msg.sender;\n    mapping(uint256 => bool) usedNonces;\n    event RentPayment(address _sender, uint _amount);\n    event RentSent(address _sender, address _signature);\n\n    constructor() payable {\n\n    }\n\n    function claimPayment(uint256 amount, uint256 nonce, bytes memory signature) public {\n        //require(!usedNonces[nonce]);\n        // this recreates the message that was signed on the client\n        bytes32 message = prefixed(keccak256(abi.encodePacked(msg.sender, amount, nonce, this)));\n\n       //require(recoverSigner(message, signature) == owner);\n        emit RentSent(recoverSigner(message, signature), owner);\n        //usedNonces[nonce] = true;\n        //payable(msg.sender).transfer(amount);\n    }\n\n    function getHashedMessage(address reciever, uint256 amount, uint256 nonce) view public returns (bytes32) {\n       return prefixed(keccak256(abi.encodePacked(reciever, amount, nonce, this)));\n    }\n\n    /// destroy the contract and reclaim the leftover funds.\n    function shutdown() public {\n        require(msg.sender == owner);\n        selfdestruct(payable(msg.sender));\n    }\n\n    /// signature methods.\n    function splitSignature(bytes memory sig)\n        internal\n        pure\n        returns (uint8 v, bytes32 r, bytes32 s)\n    {\n        require(sig.length == 65);\n\n        assembly {\n            // first 32 bytes, after the length prefix.\n            r := mload(add(sig, 32))\n            // second 32 bytes.\n            s := mload(add(sig, 64))\n            // final byte (first byte of the next 32 bytes).\n            v := byte(0, mload(add(sig, 96)))\n        }\n\n        return (v, r, s);\n    }\n\n    function recoverSigner(bytes32 message, bytes memory sig)\n        internal\n        pure\n        returns (address)\n    {\n        (uint8 v, bytes32 r, bytes32 s) = splitSignature(sig);\n\n        return ecrecover(message, v, r, s);\n    }\n\n    /// builds a prefixed hash to mimic the behavior of eth_sign.\n    function prefixed(bytes32 hash) internal pure returns (bytes32) {\n        return keccak256(abi.encodePacked(\"\\x19Ethereum Signed Message:\\n32\", hash));\n    }\n\n    // emit rent payment event when recieved\n    receive() external payable {\n        emit RentPayment(msg.sender, msg.value);\n    }\n}",
  "sourcePath": "/Users/selim/Documents/8.Coding/2.Projects/1.Etherente/Real-Estate-Token-Exchange-Fullstack/contracts/ReceiverPays.sol",
  "compiler": {
    "name": "solc",
    "version": "0.8.6+commit.11564f7e.Emscripten.clang"
  },
  "schemaVersion": "3.1.0",
  "updatedAt": "2021-08-02T18:01:46.980Z",
  "networkType": "ethereum",
  "devdoc": {
    "kind": "dev",
    "methods": {},
    "version": 1
  },
  "userdoc": {
    "kind": "user",
    "methods": {
      "shutdown()": {
        "notice": "destroy the contract and reclaim the leftover funds."
      }
    },
    "version": 1
  }
}