{
  "contractName": "ReceiverPays",
  "abi": [
    {
      "inputs": [],
      "stateMutability": "payable",
      "type": "constructor",
      "payable": true
    },
    {
      "anonymous": false,
      "inputs": [
        {
          "indexed": false,
          "internalType": "address",
          "name": "_sender",
          "type": "address"
        },
        {
          "indexed": false,
          "internalType": "uint256",
          "name": "_amount",
          "type": "uint256"
        }
      ],
      "name": "RentPayment",
      "type": "event"
    },
    {
      "anonymous": false,
      "inputs": [
        {
          "indexed": false,
          "internalType": "address",
          "name": "_recoveredAddress",
          "type": "address"
        },
        {
          "indexed": false,
          "internalType": "address",
          "name": "_owner",
          "type": "address"
        },
        {
          "indexed": false,
          "internalType": "bytes32",
          "name": "_message",
          "type": "bytes32"
        }
      ],
      "name": "RentSent",
      "type": "event"
    },
    {
      "stateMutability": "payable",
      "type": "receive",
      "payable": true
    },
    {
      "inputs": [
        {
          "internalType": "uint256",
          "name": "amount",
          "type": "uint256"
        },
        {
          "internalType": "uint256",
          "name": "nonce",
          "type": "uint256"
        },
        {
          "internalType": "bytes",
          "name": "signature",
          "type": "bytes"
        },
        {
          "internalType": "uint8",
          "name": "v",
          "type": "uint8"
        },
        {
          "internalType": "bytes32",
          "name": "r",
          "type": "bytes32"
        },
        {
          "internalType": "bytes32",
          "name": "s",
          "type": "bytes32"
        }
      ],
      "name": "claimPayment",
      "outputs": [],
      "stateMutability": "nonpayable",
      "type": "function"
    },
    {
      "inputs": [
        {
          "internalType": "address",
          "name": "reciever",
          "type": "address"
        },
        {
          "internalType": "uint256",
          "name": "amount",
          "type": "uint256"
        },
        {
          "internalType": "uint256",
          "name": "nonce",
          "type": "uint256"
        }
      ],
      "name": "getHashedMessage",
      "outputs": [
        {
          "internalType": "bytes32",
          "name": "",
          "type": "bytes32"
        }
      ],
      "stateMutability": "view",
      "type": "function",
      "constant": true
    },
    {
      "inputs": [],
      "name": "shutdown",
      "outputs": [],
      "stateMutability": "nonpayable",
      "type": "function"
    }
  ],
  "bytecode": "0x6080604052336000806101000a81548173ffffffffffffffffffffffffffffffffffffffff021916908373ffffffffffffffffffffffffffffffffffffffff160217905550610d59806100536000396000f3fe6080604052600436106100385760003560e01c8063018884471461007d578063b020a0cd146100ba578063fc0e74d1146100e357610078565b36610078577ffbfb5c3838edba49f86bf92ac506367c2bb6d474fa7cbadfd4f5618c9c665a48333460405161006e9291906108d1565b60405180910390a1005b600080fd5b34801561008957600080fd5b506100a4600480360381019061009f91906105e3565b6100fa565b6040516100b191906108fa565b60405180910390f35b3480156100c657600080fd5b506100e160048036038101906100dc9190610636565b61013a565b005b3480156100ef57600080fd5b506100f86101e3565b005b6000610131848484306040516020016101169493929190610826565b60405160208183030381529060405280519060200120610254565b90509392505050565b6000610171338888306040516020016101569493929190610826565b60405160208183030381529060405280519060200120610254565b90507f576583b9a9db090f8e2b51381fa28a1ef33152fd9bb91f36a163d5956f35ab206101a18287878787610284565b60008054906101000a900473ffffffffffffffffffffffffffffffffffffffff16836040516101d29392919061089a565b60405180910390a150505050505050565b60008054906101000a900473ffffffffffffffffffffffffffffffffffffffff1673ffffffffffffffffffffffffffffffffffffffff163373ffffffffffffffffffffffffffffffffffffffff161461023b57600080fd5b3373ffffffffffffffffffffffffffffffffffffffff16ff5b6000816040516020016102679190610874565b604051602081830303815290604052805190602001209050919050565b6000610290868661029b565b905095945050505050565b60006041825114156102da5760008060006020850151925060408501519150606085015160001a90506102d08682858561034a565b9350505050610344565b6040825114156103095760008060208401519150604084015190506103008583836104d5565b92505050610344565b6040517f08c379a000000000000000000000000000000000000000000000000000000000815260040161033b9061097a565b60405180910390fd5b92915050565b60007f7fffffffffffffffffffffffffffffff5d576e7357a4501ddfe92f46681b20a08260001c11156103b2576040517f08c379a00000000000000000000000000000000000000000000000000000000081526004016103a99061099a565b60405180910390fd5b601b8460ff1614806103c75750601c8460ff16145b610406576040517f08c379a00000000000000000000000000000000000000000000000000000000081526004016103fd906109ba565b60405180910390fd5b60006001868686866040516000815260200160405260405161042b9493929190610915565b6020604051602081039080840390855afa15801561044d573d6000803e3d6000fd5b505050602060405103519050600073ffffffffffffffffffffffffffffffffffffffff168173ffffffffffffffffffffffffffffffffffffffff1614156104c9576040517f08c379a00000000000000000000000000000000000000000000000000000000081526004016104c09061095a565b60405180910390fd5b80915050949350505050565b60008060007f7fffffffffffffffffffffffffffffffffffffffffffffffffffffffffffffff84169150601b8460ff1c0190506105148682878561034a565b925050509392505050565b600061053261052d846109ff565b6109da565b90508281526020810184848401111561054e5761054d610b81565b5b610559848285610ac3565b509392505050565b60008135905061057081610cc7565b92915050565b60008135905061058581610cde565b92915050565b600082601f8301126105a05761059f610b7c565b5b81356105b084826020860161051f565b91505092915050565b6000813590506105c881610cf5565b92915050565b6000813590506105dd81610d0c565b92915050565b6000806000606084860312156105fc576105fb610b8b565b5b600061060a86828701610561565b935050602061061b868287016105b9565b925050604061062c868287016105b9565b9150509250925092565b60008060008060008060c0878903121561065357610652610b8b565b5b600061066189828a016105b9565b965050602061067289828a016105b9565b955050604087013567ffffffffffffffff81111561069357610692610b86565b5b61069f89828a0161058b565b94505060606106b089828a016105ce565b93505060806106c189828a01610576565b92505060a06106d289828a01610576565b9150509295509295509295565b6106e881610a4c565b82525050565b6106ff6106fa82610a4c565b610b03565b82525050565b61070e81610a5e565b82525050565b61072561072082610a5e565b610b27565b82525050565b61073c61073782610a9f565b610b15565b82525050565b600061074f601883610a30565b915061075a82610bae565b602082019050919050565b6000610772601f83610a30565b915061077d82610bd7565b602082019050919050565b6000610795601c83610a41565b91506107a082610c00565b601c82019050919050565b60006107b8602283610a30565b91506107c382610c29565b604082019050919050565b60006107db602283610a30565b91506107e682610c78565b604082019050919050565b6107fa81610a88565b82525050565b61081161080c82610a88565b610b43565b82525050565b61082081610a92565b82525050565b600061083282876106ee565b6014820191506108428286610800565b6020820191506108528285610800565b602082019150610862828461072b565b60148201915081905095945050505050565b600061087f82610788565b915061088b8284610714565b60208201915081905092915050565b60006060820190506108af60008301866106df565b6108bc60208301856106df565b6108c96040830184610705565b949350505050565b60006040820190506108e660008301856106df565b6108f360208301846107f1565b9392505050565b600060208201905061090f6000830184610705565b92915050565b600060808201905061092a6000830187610705565b6109376020830186610817565b6109446040830185610705565b6109516060830184610705565b95945050505050565b6000602082019050818103600083015261097381610742565b9050919050565b6000602082019050818103600083015261099381610765565b9050919050565b600060208201905081810360008301526109b3816107ab565b9050919050565b600060208201905081810360008301526109d3816107ce565b9050919050565b60006109e46109f5565b90506109f08282610ad2565b919050565b6000604051905090565b600067ffffffffffffffff821115610a1a57610a19610b4d565b5b610a2382610b90565b9050602081019050919050565b600082825260208201905092915050565b600081905092915050565b6000610a5782610a68565b9050919050565b6000819050919050565b600073ffffffffffffffffffffffffffffffffffffffff82169050919050565b6000819050919050565b600060ff82169050919050565b6000610aaa82610ab1565b9050919050565b6000610abc82610a68565b9050919050565b82818337600083830152505050565b610adb82610b90565b810181811067ffffffffffffffff82111715610afa57610af9610b4d565b5b80604052505050565b6000610b0e82610b31565b9050919050565b6000610b2082610b31565b9050919050565b6000819050919050565b6000610b3c82610ba1565b9050919050565b6000819050919050565b7f4e487b7100000000000000000000000000000000000000000000000000000000600052604160045260246000fd5b600080fd5b600080fd5b600080fd5b600080fd5b6000601f19601f8301169050919050565b60008160601b9050919050565b7f45434453413a20696e76616c6964207369676e61747572650000000000000000600082015250565b7f45434453413a20696e76616c6964207369676e6174757265206c656e67746800600082015250565b7f19457468657265756d205369676e6564204d6573736167653a0a333200000000600082015250565b7f45434453413a20696e76616c6964207369676e6174757265202773272076616c60008201527f7565000000000000000000000000000000000000000000000000000000000000602082015250565b7f45434453413a20696e76616c6964207369676e6174757265202776272076616c60008201527f7565000000000000000000000000000000000000000000000000000000000000602082015250565b610cd081610a4c565b8114610cdb57600080fd5b50565b610ce781610a5e565b8114610cf257600080fd5b50565b610cfe81610a88565b8114610d0957600080fd5b50565b610d1581610a92565b8114610d2057600080fd5b5056fea2646970667358221220370bb8423b5d3d4343817405b1e1d4797d57ded9f861afa8c675ff850ec4b21c64736f6c63430008060033",
  "immutableReferences": {},
  "source": "// SPDX-License-Identifier: GPL-3.0\nimport \"@openzeppelin/contracts/utils/cryptography/ECDSA.sol\";\n\npragma solidity >=0.7.0 <0.9.0;\ncontract ReceiverPays {\n    address owner = msg.sender;\n    mapping(uint256 => bool) usedNonces;\n    event RentPayment(address _sender, uint _amount);\n    event RentSent(address _recoveredAddress, address _owner, bytes32 _message);\n\n    constructor() payable {\n\n    }\n\n    function claimPayment(uint256 amount, uint256 nonce, bytes memory signature, uint8 v, bytes32 r, bytes32 s) public {\n        //require(!usedNonces[nonce]);\n        // this recreates the message that was signed on the client\n        bytes32 message = prefixed(keccak256(abi.encodePacked(msg.sender, amount, nonce, this)));\n\n       //require(recoverSigner(message, signature) == owner);\n        emit RentSent(recoverSigner(message, signature, v, r, s), owner, message);\n        //usedNonces[nonce] = true;\n        //payable(msg.sender).transfer(amount);\n    }\n\n    function getHashedMessage(address reciever, uint256 amount, uint256 nonce) view public returns (bytes32) {\n       return prefixed(keccak256(abi.encodePacked(reciever, amount, nonce, this)));\n    }\n\n     /// destroy the contract and reclaim the leftover funds.\n    function shutdown() public {\n        require(msg.sender == owner);\n        selfdestruct(payable(msg.sender));\n    }\n\n    /// signature methods.\n    function splitSignature(bytes memory sig)\n        internal\n        pure\n        returns (uint8 v, bytes32 r, bytes32 s)\n    {\n        require(sig.length == 65);\n\n        assembly {\n            // first 32 bytes, after the length prefix.\n            r := mload(add(sig, 32))\n            // second 32 bytes.\n            s := mload(add(sig, 64))\n            // final byte (first byte of the next 32 bytes).\n            v := byte(0, mload(add(sig, 96)))\n        }\n\n        return (v, r, s);\n    }\n\n    function recoverSigner(bytes32 message, bytes memory sig, uint8 v, bytes32 r, bytes32 s)\n        internal\n        pure\n        returns (address)\n    {\n        //(uint8 v, bytes32 r, bytes32 s) = splitSignature(sig);\n\n        //return ecrecover(message, v, r, s);\n\n        return ECDSA.recover(message, sig);\n    }\n\n    /// builds a prefixed hash to mimic the behavior of eth_sign.\n    function prefixed(bytes32 hash) internal pure returns (bytes32) {\n        return keccak256(abi.encodePacked(\"\\x19Ethereum Signed Message:\\n32\", hash));\n    }\n\n    // emit rent payment event when received\n    receive() external payable {\n        emit RentPayment(msg.sender, msg.value);\n    }\n}",
  "sourcePath": "/Users/selim/Documents/8.Coding/2.Projects/1.Etherente/Real-Estate-Token-Exchange-Fullstack/contracts/ReceiverPays.sol",
  "compiler": {
    "name": "solc",
    "version": "0.8.6+commit.11564f7e.Emscripten.clang"
  },
  "schemaVersion": "3.1.0",
  "updatedAt": "2021-08-04T13:16:20.854Z",
  "networkType": "ethereum",
  "devdoc": {
    "kind": "dev",
    "methods": {},
    "version": 1
  },
  "userdoc": {
    "kind": "user",
    "methods": {
      "shutdown()": {
        "notice": "destroy the contract and reclaim the leftover funds."
      }
    },
    "version": 1
  }
}