{
  "contractName": "ReceiverRent",
  "abi": [
    {
      "anonymous": false,
      "inputs": [
        {
          "indexed": false,
          "internalType": "address",
          "name": "_sender",
          "type": "address"
        },
        {
          "indexed": false,
          "internalType": "uint256",
          "name": "_amount",
          "type": "uint256"
        }
      ],
      "name": "RentPayment",
      "type": "event"
    },
    {
      "stateMutability": "payable",
      "type": "receive",
      "payable": true
    },
    {
      "inputs": [
        {
          "internalType": "uint256",
          "name": "_amount",
          "type": "uint256"
        },
        {
          "internalType": "uint256",
          "name": "_nonce",
          "type": "uint256"
        },
        {
          "internalType": "uint8",
          "name": "_v",
          "type": "uint8"
        },
        {
          "internalType": "bytes32",
          "name": "_r",
          "type": "bytes32"
        },
        {
          "internalType": "bytes32",
          "name": "_s",
          "type": "bytes32"
        }
      ],
      "name": "claimPayment",
      "outputs": [],
      "stateMutability": "nonpayable",
      "type": "function"
    },
    {
      "inputs": [
        {
          "internalType": "address",
          "name": "_receiver",
          "type": "address"
        },
        {
          "internalType": "uint256",
          "name": "_amount",
          "type": "uint256"
        },
        {
          "internalType": "uint256",
          "name": "_nonce",
          "type": "uint256"
        }
      ],
      "name": "getHashedMessage",
      "outputs": [
        {
          "internalType": "bytes32",
          "name": "",
          "type": "bytes32"
        }
      ],
      "stateMutability": "view",
      "type": "function",
      "constant": true
    },
    {
      "inputs": [],
      "name": "shutdown",
      "outputs": [],
      "stateMutability": "nonpayable",
      "type": "function"
    }
  ],
  "bytecode": "0x6080604052336000806101000a81548173ffffffffffffffffffffffffffffffffffffffff021916908373ffffffffffffffffffffffffffffffffffffffff16021790555034801561005057600080fd5b506107ca806100606000396000f3fe6080604052600436106100385760003560e01c8063018572611461007d57806301888447146100a6578063fc0e74d1146100e357610078565b36610078577ffbfb5c3838edba49f86bf92ac506367c2bb6d474fa7cbadfd4f5618c9c665a48333460405161006e9291906105a8565b60405180910390a1005b600080fd5b34801561008957600080fd5b506100a4600480360381019061009f91906103fe565b6100fa565b005b3480156100b257600080fd5b506100cd60048036038101906100c891906103ab565b61027e565b6040516100da91906105d1565b60405180910390f35b3480156100ef57600080fd5b506100f86102b6565b005b6001600085815260200190815260200160002060009054906101000a900460ff161561012557600080fd5b600061015c338787306040516020016101419493929190610534565b60405160208183030381529060405280519060200120610327565b905060008054906101000a900473ffffffffffffffffffffffffffffffffffffffff1673ffffffffffffffffffffffffffffffffffffffff16600182868686604051600081526020016040526040516101b894939291906105ec565b6020604051602081039080840390855afa1580156101da573d6000803e3d6000fd5b5050506020604051035173ffffffffffffffffffffffffffffffffffffffff161461020457600080fd5b600180600087815260200190815260200160002060006101000a81548160ff0219169083151502179055503373ffffffffffffffffffffffffffffffffffffffff166108fc879081150290604051600060405180830381858888f19350505050158015610275573d6000803e3d6000fd5b50505050505050565b6000838383306040516020016102979493929190610534565b6040516020818303038152906040528051906020012090509392505050565b60008054906101000a900473ffffffffffffffffffffffffffffffffffffffff1673ffffffffffffffffffffffffffffffffffffffff163373ffffffffffffffffffffffffffffffffffffffff161461030e57600080fd5b3373ffffffffffffffffffffffffffffffffffffffff16ff5b60008160405160200161033a9190610582565b604051602081830303815290604052805190602001209050919050565b60008135905061036681610738565b92915050565b60008135905061037b8161074f565b92915050565b60008135905061039081610766565b92915050565b6000813590506103a58161077d565b92915050565b6000806000606084860312156103c4576103c36106fd565b5b60006103d286828701610357565b93505060206103e386828701610381565b92505060406103f486828701610381565b9150509250925092565b600080600080600060a0868803121561041a576104196106fd565b5b600061042888828901610381565b955050602061043988828901610381565b945050604061044a88828901610396565b935050606061045b8882890161036c565b925050608061046c8882890161036c565b9150509295509295909350565b6104828161063c565b82525050565b6104996104948261063c565b6106b3565b82525050565b6104a88161064e565b82525050565b6104bf6104ba8261064e565b6106d7565b82525050565b6104d66104d18261068f565b6106c5565b82525050565b60006104e9601c83610631565b91506104f48261070f565b601c82019050919050565b61050881610678565b82525050565b61051f61051a82610678565b6106f3565b82525050565b61052e81610682565b82525050565b60006105408287610488565b601482019150610550828661050e565b602082019150610560828561050e565b60208201915061057082846104c5565b60148201915081905095945050505050565b600061058d826104dc565b915061059982846104ae565b60208201915081905092915050565b60006040820190506105bd6000830185610479565b6105ca60208301846104ff565b9392505050565b60006020820190506105e6600083018461049f565b92915050565b6000608082019050610601600083018761049f565b61060e6020830186610525565b61061b604083018561049f565b610628606083018461049f565b95945050505050565b600081905092915050565b600061064782610658565b9050919050565b6000819050919050565b600073ffffffffffffffffffffffffffffffffffffffff82169050919050565b6000819050919050565b600060ff82169050919050565b600061069a826106a1565b9050919050565b60006106ac82610658565b9050919050565b60006106be826106e1565b9050919050565b60006106d0826106e1565b9050919050565b6000819050919050565b60006106ec82610702565b9050919050565b6000819050919050565b600080fd5b60008160601b9050919050565b7f19457468657265756d205369676e6564204d6573736167653a0a333200000000600082015250565b6107418161063c565b811461074c57600080fd5b50565b6107588161064e565b811461076357600080fd5b50565b61076f81610678565b811461077a57600080fd5b50565b61078681610682565b811461079157600080fd5b5056fea2646970667358221220e905e3a2259ef08ad03c1a4de195c074bf7279e1e193e8915d8f787a9d57b0bb64736f6c63430008060033",
  "immutableReferences": {},
  "source": "// SPDX-License-Identifier: UNLICENSED\npragma solidity ^0.8.6;\n\n/// @title Handles the transfer of rent to tokens holders\n/// @author Selim Sahnoun\n/// @notice Handles the transfer of rent to tokens holders. You can use this contract for only the most basic simulation\n/// @dev This is an experimental contract, no real estate goods are linked to it\n\ncontract ReceiverRent {\n    address owner = msg.sender;\n    mapping(uint256 => bool) usedNonces;\n    event RentPayment(address _sender, uint256 _amount);\n\n    /// @notice allow user to claim his rent payment\n    /// @dev check that the nonce wasn't used, then identify ownership of signature that needs to match the owner of contract then transfer\n    /// @param _amount amount to be transferred\n    /// @param _nonce single use nonce to not withdraw twice\n    /// @param _v, _r, _s signature parameters to identify ownership\n    function claimPayment(uint256 _amount, uint256 _nonce, uint8 _v, bytes32 _r, bytes32 _s) public {\n        require(!usedNonces[_nonce]);\n        // this recreates the message that was signed on the client\n        bytes32 message = prefixed(keccak256(abi.encodePacked(msg.sender, _amount, _nonce, this)));\n        require(ecrecover(message, _v, _r, _s) == owner);\n        usedNonces[_nonce] = true;\n        payable(msg.sender).transfer(_amount);\n    }\n    /// @notice returns a hashed message to sign\n    /// @dev hash a message through a view function \n    /// @param _receiver address to receive rent\n    /// @return hashed 32 bytes message\n    function getHashedMessage(address _receiver, uint256 _amount, uint256 _nonce) view public returns (bytes32) {\n       return keccak256(abi.encodePacked(_receiver, _amount, _nonce, this));\n    }\n\n    /// @notice builds a prefixed hash to mimic the behavior of eth_sign.\n    /// @return hashed 32 bytes message with prefix\n    function prefixed(bytes32 hash) internal pure returns (bytes32) {\n        return keccak256(abi.encodePacked(\"\\x19Ethereum Signed Message:\\n32\", hash));\n    }\n\n    /// @notice destroy the contract and reclaim the leftover funds.\n    function shutdown() public {\n        require(msg.sender == owner);\n        selfdestruct(payable(msg.sender));\n    }\n    /// @notice emit rent payment event when ether is received\n    receive() external payable {\n        emit RentPayment(msg.sender, msg.value);\n    }\n}",
  "sourcePath": "/Users/selim/Documents/8.Coding/2.Projects/1.Etherente/Real-Estate-Token-Exchange-Fullstack/contracts/ReceiverRent.sol",
  "compiler": {
    "name": "solc",
    "version": "0.8.6+commit.11564f7e.Emscripten.clang"
  },
  "schemaVersion": "3.1.0",
  "updatedAt": "2021-08-09T18:18:19.055Z",
  "networkType": "ethereum",
  "devdoc": {
    "author": "Selim Sahnoun",
    "details": "This is an experimental contract, no real estate goods are linked to it",
    "kind": "dev",
    "methods": {
      "claimPayment(uint256,uint256,uint8,bytes32,bytes32)": {
        "details": "check that the nonce wasn't used, then identify ownership of signature that needs to match the owner of contract then transfer",
        "params": {
          "_amount": "amount to be transferred",
          "_nonce": "single use nonce to not withdraw twice",
          "_v": ", _r, _s signature parameters to identify ownership"
        }
      },
      "getHashedMessage(address,uint256,uint256)": {
        "details": "hash a message through a view function ",
        "params": {
          "_receiver": "address to receive rent"
        },
        "returns": {
          "_0": "hashed 32 bytes message"
        }
      }
    },
    "title": "Handles the transfer of rent to tokens holders",
    "version": 1
  },
  "userdoc": {
    "kind": "user",
    "methods": {
      "claimPayment(uint256,uint256,uint8,bytes32,bytes32)": {
        "notice": "allow user to claim his rent payment"
      },
      "getHashedMessage(address,uint256,uint256)": {
        "notice": "returns a hashed message to sign"
      },
      "shutdown()": {
        "notice": "destroy the contract and reclaim the leftover funds."
      }
    },
    "notice": "Handles the transfer of rent to tokens holders. You can use this contract for only the most basic simulation",
    "version": 1
  }
}